S0170000416972436F6E646974696F6E696E672E737265630C
S11300001DC02CC02BC060C329C09DC327C026C0FF
S11300101CC224C025C33BC321C0CEC31FC01EC005
S11300201DC01CC01BC01AC019C018C01FC116C0F7
S1130030DEC114C013C012C011C010C011241FBEF1
S1130040CFEFD1E0DEBFCDBF21E0A0E0B1E001C041
S11300501D92A934B207E1F70BD4B8C4D1CFFC0187
S11300602FEF3FEF615067FD1BC091913927032E9D
S11300700294902D9F709327832F8025880F807E74
S11300809827802D8327807F8695032E000C881F58
S11300903695369536953F7138273227292FE2CF8A
S11300A0C9010895CF92DF92EF92FF92CF93DF932D
S11300B0EB01BC01990F880B990B24E630E040E07A
S11300C050E0EAD32091320130913301032E000C29
S11300D0440B550B30D469017A01BE01DD0F880B46
S11300E0990B24E630E040E050E0D6D320912E0175
S11300F030912F01032E000C440B550B1CD4C60168
S1130100C216D3060CF4C901DF91CF91FF90EF9092
S1130110DF90CF900895CF92DF92EF92FF920F93EA
S11301201F93CF93DF9380912B018F3F09F04EC033
S1130130E0903001F09031010091250110912601E9
S11301400E191F09C0902C01D0902D01C0912101DE
S1130150D0912201CC19DD09BE01C801A3DF839629
S113016020914201233230F02091420130E02817DF
S113017039073CF020914201233258F4843291052E
S113018044F08838910514F087E890E080934201A8
S11301901DC0B60183E0759567958A95E1F76C0FEC
S11301A07D1FC70123E0959587952A95E1F7800F78
S11301B0911F78DF83962091420130E082179307E4
S11301C02CF48432910514F780E0E0CFDF91CF91D5
S11301D01F910F91FF90EF90DF90CF900895CF92F1
S11301E0DF92EF92FF924091380150913901609172
S11301F03A0170913B01809147019FEF980F9093D2
S113020047016A017B019FEFC90ED91EE11CF11C55
S1130210882319F0B701A601EECF80914001909197
S113022041016A017B01C81AD90AE108F108C092A8
S11302303801D0923901E0923A01F0923B01609189
S1130240480170E061507109072E000C880B990B6E
S113025020E030EC4BE453E01FD3A701960149D3CF
S1130260C901FF90EF90DF90CF9008951F920F92F5
S11302700FB60F9211242F933F934F935F936F9375
S11302807F938F939F93AF93BF93EF93FF9380914B
S113029080009091860090FF54C09FEE980F933099
S11302A008F04CC01092860080934501833161F4BC
S11302B08BE08093030184E091E0909302018093AA
S11302C001011092440182C0DD9A80E68A95F1F71B
S11302D080914501823151F48AE0809346018BE29A
S11302E091E090933701809336011AC084E091E045
S11302F090933701809336016FE08AE191E0AFDE9D
S113030090932A018093290181E1EAE1F1E0A4E0DC
S1130310B1E001900D928A95E1F780E18093460166
S1130320E0913601F0913701CF01019690933701A6
S11303308093360180818093800048C010924501EB
S113034045C090914501933109F040C0E09101010D
S1130350F09102019F012F5F3F4F309302012093E0
S113036001018083809103018150809303018111F5
S11303702DC01092450169E084E091E070DE209187
S11303800D0130910E0182179307E9F48BE0E4E04C
S1130390F1E0ABE2B1E001900D928A95E1F7809132
S11303A02B018F3F81F0809342018091420183327F
S11303B018F41092420107C080914201883818F065
S11303C087E88093420181E080938600FF91EF915A
S11303D0BF91AF919F918F917F916F915F914F9159
S11303E03F912F910F900FBE0F901F9018951F9261
S11303F00F920FB60F9211248F939F93EF93FF9355
S1130400809146019FEF980F90934601882371F0E5
S1130410E0913601F0913701CF01019690933701B5
S11304208093360180818093800006C0DD9881E04E
S11304308093860010924501FF91EF919F918F91D7
S11304400F900FBE0F901F9018951F920F920FB62A
S11304500F9211241F932F933F934F935F936F93A6
S11304607F938F939F93AF93BF93CF93DF93EF9338
S1130470FF93C0913C01D0913D01CE010196909330
S11304803D0180933C011C2F1F7380913C0190918E
S11304903D01892B39F44BE050E060E070E08BE2E1
S11304A091E074D21C3209F047C04091150130919B
S11304B01601842F830F20911701820F9091180148
S11304C0409316013093150120931801909317015E
S11304D0890F90911901891322C02091150130913F
S11304E0160121153105D9F0809117019091180159
S11304F097FF08C09F779195819591099093180172
S113050080931701309322012093210180911701D8
S1130510909118019093260180932501FCDDC298E7
S1130520BA9A84E083BF12BE90E39CBF95E098BF63
S113053089BF8EEF809343018C2F8F7089F4809153
S11305404801823010F04BDE02C080E090E09093CE
S11305501C0180931B01DE9A109248017D9A26C0EB
S1130560883021F580914801823010F038DE02C0D5
S113057080E090E090931E0180931D01DE9810921C
S113058048017D9A80913E0190913F0123E0880FBC
S1130590991F2A95E1F761E270E097D170932001E9
S11305A060931F0110923F0110923E01809145011A
S11305B0833139F4809144018F5F80934401833007
S11305C0A8F5C0FD2E9AC370C330B1F59091C40054
S11305D080914201891760F48091C4008150809316
S11305E0C4008091C4008332A8F41092C40012C0E5
S11305F09091C40080914201981760F48091C400E6
S11306008F5F8093C4008091C400833218F483E226
S11306108093C4008091C40080931A018091C0002B
S11306209091C400891B8093C20006C081E080932E
S1130630860010924501C5CFFF91EF91DF91CF91D4
S1130640BF91AF919F918F917F916F915F914F91E6
S11306503F912F911F910F900FBE0F901F901895EF
S11306601F920F920FB60F9211248F93BA9882E0C3
S113067083BF12BE81E089BF84E080BD80E28ABF6F
S11306808BBF8F910F900FBE0F901F9018951F92E4
S11306900F920FB60F9211248F93AF93BF93EF93E2
S11306A0FF9319BE1BBE85E0E5E1F1E0DF011D9279
S11306B08A95E9F7FF91EF91BF91AF918F910F90D8
S11306C00FBE0F901F9018951F920F920FB60F92A6
S11306D011248F939F93EF93FF9392B712BEB29915
S11306E029C080914301809143018832D0F48091E4
S11306F00001880F9F3208F081608093000180918F
S113070043018770873069F4E0914301F0E083E0AE
S1130710F595E7958A95E1F7EB5EFE4F8091000130
S11307208083809143018F5F80934301883211F469
S113073019BE1BBEFF91EF919F918F910F900FBE39
S11307400F901F9018951F920F920FB60F921124BD
S11307508F939F93AF93BF938091480191E0980F3B
S113076090934801811107C084B595B590934101D8
S1130770809340010CC084B595B5A0E0B0E08093AF
S1130780380190933901A0933A01B0933B018091D1
S11307904801883008F07D9880913C0190913D019A
S11307A0877080934701BF91AF919F918F910F9074
S11307B00FBE0F901F9018951F920F920FB60F92B5
S11307C011242F933F938F939F9326B137B1809138
S11307D03E0190913F01820F931F90933F018093BC
S11307E03E019F918F913F912F910F900FBE0F90DB
S11307F01F901895F8948AE78ABB85E090E090935F
S11308008200809381008CED809385008EE080933C
S1130810840081E08093860092EC9EBD8FB923E929
S113082030E03093C1002093C0001092C5001092B4
S1130830C4003093C3002093C20090EB9093CA008D
S113084091E19093C900E7E6F0E09081906A90838B
S1130850E6E6F0E090819C60908390E298B99DE890
S113086095B98093600080ED80937000789408952A
S1130870C1DF4BE050E060E070E08BE291E077D0C4
S11308808FEF80932B0169E08BE291E0E8DB90939A
S1130890350180933401FFCFEE27FF27AA27BB271A
S11308A008C0A20FB31FE41FF51F220F331F441FFC
S11308B0551F969587957795679598F37040A9F796
S11308C0009799F7BD01CF010895AA1BBB1B51E105
S11308D007C0AA1FBB1FA617B70710F0A61BB70BAC
S11308E0881F991F5A95A9F780959095BC01CD0151
S11308F00895A1E21A2EAA1BBB1BFD010DC0AA1F5D
S1130900BB1FEE1FFF1FA217B307E407F50720F074
S1130910A21BB30BE40BF50B661F771F881F991FEF
S11309201A9469F760957095809590959B01AC0138
S1130930BD01CF010895052E97FB16F400940FD046
S113094057FD05D0D6DF07FC02D046F408C0509509
S11309504095309521953F4F4F4F5F4F08959095A7
S11309608095709561957F4F8F4F9F4F0895DC015F
S1130970862FE82FE199FECF1FBA05C0EEBBE09A9F
S1130980E3950DB20D924150C8F70895DC01A40F10
S1130990B51F4150504038F0862F840F2E9105D05A
S11309A041505040D8F70895262FE199FECF1FBA41
S11309B08EBBE09A81500DB2021639F01CBA2DBBE1
S11309C00FB6F894E29AE19A0FBE0895F894FFCF17
S9030000FC
