S00E00004272696467652E73726563C9
S11300001DC037C036C035C034C033C032C031C063
S113001030C02FC02EC0D4C02CC02BC02AC029C0D1
S113002028C027C026C025C024C023C023C021C0A7
S113003031C01FC075C01DC01CC01BC011241FBE11
S1130040CFEFD1E0DEBFCDBF11E0A0E0B1E0E0E250
S1130050F2E002C005900D92A430B107D9F721E077
S1130060A4E0B1E001C01D92A634B207E1F7B9D013
S1130070D5C0C6CF1F920F920FB60F9211248F9343
S113008080918000809390008F910F900FBE0F900D
S11300901F9018951F920F920FB60F9211248F93F1
S11300A09F93EF93FF938091850080FF1AC0E5E84A
S11300B0F0E080818E7F8083809104018F70833093
S11300C071F4E0910001F0910101CF010196909348
S11300D001018093000180818093800018C0DB9827
S11300E016C0E0910001F09101018091020190910C
S11300F003018E179F0750F0CF01019690930101E1
S11301008093000180818093800001C0DB98FF917F
S1130110EF919F918F910F900FBE0F901F901895A4
S11301201F920F920FB60F9211248F939F93EF9308
S1130130FF938091050181112CC0809190008093E0
S11301400401DB9A82E08A95F1F700C0E5E8F0E06B
S113015080818160808380910401809380008091FC
S113016004018F70833019F581E08093050186E0E6
S113017091E0909303018093020190930101809395
S1130180000112BE88B7816088BF89B7816089BFCA
S11301900EC012BEE0910201F0910301CF0101965D
S11301A09093030180930201809190008083FF91DA
S11301B0EF919F918F910F900FBE0F901F90189504
S11301C01F920F920FB60F9211248F9389B78E7FCF
S11301D089BF109205018F910F900FBE0F901F9051
S11301E01895F8948AE28ABB82E090E090938200AA
S11301F0809381002CED209385002EE020938400D1
S1130200909392008093910088E98093950082E016
S113021083BF8DE9809370007894FFCFF894FFCF6B
S107022006010601C8
S9030000FC
