S00E00004272696467652E73726563C9
S11300001DC037C036C035C034C033C032C031C063
S113001030C02FC02EC028C12CC02BC02AC029C07C
S113002028C027C026C025C024C023C023C021C0A7
S11300303FC01FC088C01DC0EAC01BC011241FBE22
S1130040CFEFD1E0DEBFCDBF11E0A0E0B1E0EEEC38
S1130050F2E002C005900D92A031B107D9F721E07A
S1130060A0E1B1E001C01D92A235B207E1F70DD1C4
S11300702CC1C6CF1F920F920FB60F9211248F93EB
S11300801DBC1CBC8091860082FF08C08FEF80934A
S11300909000809180008093510104C08091800081
S11300A0809390008F910F900FBE0F901F90189522
S11300B01F920F920FB60F9211248F939F93EF9379
S11300C0FF938091850080FF1AC0E5E8F0E080810D
S11300D08E7F8083809110018F70833071F4E09162
S11300E00B01F0910C01CF01019690930C018093C8
S11300F00B018081809380001DC0DB981BC0E091C0
S11301000B01F0910C0180910D0190910E018E175D
S11301109F0760F0CF01019690930C0180930B012F
S11301208081809380001DBC1CBC04C081E080934E
S11301308600DB98FF91EF919F918F910F900FBEF6
S11301400F901F9018951F920F920FB60F921124C3
S11301508F939F93EF93FF9380911101811140C07E
S11301608091900080931001DB9A82E08A95F1F7E8
S113017000C0E5E8F0E08081816080838091100117
S113018080938000809110018F708330A9F481E006
S11301908093110182E191E090930E0180930D010F
S11301A090930C0180930B0112BE88B7816088BFC5
S11301B089B7816089BF22C0809110018231F1F436
S11301C0E5E9F0E080818064808381E091E09093B0
S11301D00C0180930B0180910001809390000EC06C
S11301E012BEE0910D01F0910E01CF0101969093A2
S11301F00E0180930D01809190008083FF91EF9117
S11302009F918F910F900FBE0F901F9018951F9282
S11302100F920FB60F9211248F939F93EF93FF9336
S1130220E0910B01F0910C01CF01019690930C0128
S113023080930B01808180939000E0910B01F091F9
S11302400C01908180910A01981305C0E5E9F0E062
S113025080818F7B8083FF91EF919F918F910F908D
S11302600FBE0F901F9018951F920F920FB60F920A
S113027011248F9389B78E7F89BF109211018F91BA
S11302800F900FBE0F901F901895F8948AE28ABBC6
S113029082E090E090938200809381002CED209383
S11302A085002EE22093840021E020938600909321
S11302B092008093910088E98093950082E083BF47
S11102C08DE9809370007894FFCFF894FFCFFF
S11302CE5D140019006F0058003CAB1201120100BE
S9030000FC
