:100000001DC02CC02BC02AC029C028C027C026C0B4
:1000100025C024C0C4C022C021C020C01FC01EC033
:100020001DC01CC01BC01AC019C018C018C016C003
:1000300026C014C058C012C011C010C011241FBE69
:10004000CFEFD1E0DEBFCDBF21E0A0E0B1E001C045
:100050001D92A434B207E1F7B0D0DFC0D1CF1F9218
:100060000F920FB60F9211248F938091800080938E
:1000700090008F910F900FBE0F901F9018951F92B8
:100080000F920FB60F9211248F939F93EF93FF93CC
:100090008091850080FF0CC0E5E8F0E080818E7FD4
:1000A0008083809102018F708330A1F0DB9812C0B1
:1000B0009091000180910101981760F4E091000196
:1000C00081E08E0F80930001F0E0EC5FFE4F8081B5
:1000D00080938000FF91EF919F918F910F900FBEC1
:1000E0000F901F9018951F920F920FB60F92112428
:1000F0008F939F93EF93FF9380910301811123C00E
:100100008091900080930201DB9A82E08A95F1F75A
:1001100000C0E5E8F0E08081816080838091020189
:1001200080938000809102018F70833079F581E0A7
:1001300080930301109201011092000112BE84E02D
:1001400088BF89BF23C012BEE091010181E08E0FFC
:100150008093010180919000F0E0EC5FFE4F80837E
:100160008091860085FF12C090910001809101016D
:10017000981760F4E091000181E08E0F80930001F8
:10018000F0E0EC5FFE4F808180938000FF91EF9163
:100190009F918F910F900FBE0F901F9018951F92F7
:1001A0000F920FB60F92112419BE10920301DB9823
:1001B0000F900FBE0F901F901895F8948AE28ABB9B
:1001C00082E090E090938200809381002CED209358
:1001D00085002EE0209384009093920080939100FC
:1001E00088E98093950093E093BF9AE99CBF92E1E0
:1001F0009EBD20E432E035BD24BD90E190936800BF
:1002000090E49093660098B995E895B991E0909341
:0E0210006000809370007894FFCFF894FFCFC9
:00000001FF
