S0120000436F6E74726F6C6C65722E73726563EE
S11300000C9457000C9474000C9474000C94C6085F
S11300100C9402090C9474000C9474000C949401D4
S11300200C9474000C9474000C9474000C9474007C
S11300300C9474000C9474000C9474000C9474006C
S11300400C9474000C9474000C9474000C9474005C
S11300500C9474000C9474000C9474000C942A088E
S11300600C9474000C9474000C9474000C9474003C
S11300700C9474000C9474000C9474000C9474002C
S11300800C9474000C9474000C948E050C947400FD
S11300900C9416090C9474000C9474000C94740061
S11300A00C9474000C9474000C947400F3091124DF
S11300B01FBECFEFCDBFD7E2DEBF21E2A0E0B0E2AA
S11300C001C01D92AF36B207E1F710E0C7E5D0E0FA
S11300D004C02197FE010E945C0AC635D107C9F706
S11300E00E94D4090C94A80A0C940000E0EDF0E0FE
S11300F0208120682083615052F0E82FF92FA0ED71
S1130100B0E0819113968C9313976150D2F7E0ED90
S1130110F0E02581848190E0922B08952F923F9204
S11301204F925F926F927F928F929F92AF92BF9203
S1130130CF92DF92EF92FF920F931F93CF93DF93AF
S1130140CDB7DEB72597CDBFDEBF5090B92055207F
S113015024F58091AD20882304F58F7090E0FC0194
S1130160EE0FFF1FEE0FFF1FEC52FF4DACE9B0E2A4
S11301704D915D916D917C9113974083518362837E
S11301807383880F991FFC01E850FF4D18968D91D9
S11301909C91199780839183B1C081E2ECE9F0E2EC
S11301A0A4E2B1E201900D928A95E1F72091352104
S11301B0ECE0F1E2B080C180D280E380A48095803D
S11301C076806780F090342100E110E20F2EFCE984
S11301D02F2EF0E23F2EF02D0F2EF0EA8F2EF02D71
S11301E0412CA801D8011296EC91F0E0EC5DFE4D93
S11301F092898689903208F490E2913A08F0982D19
S1130200FA019787803418F490E0019602C080E4E4
S1130210942DDA0150968D939C93519711969C914D
S1130220992309F44BC0D801139680E0ED91ED8336
S11302303E2F306123131FC0A983BA83F0E0EE0F71
S1130240FF1FBF01635A7E4DFB010190F081E02D39
S113025012966C91129770E06E177F0749F4FA01B9
S1130260B38AC48AD58AE68AA78A908E718E628EF2
S1130270E981FA81F282FD81F83048F4EF2FF0E051
S1130280EC5DFE4D308160853E3D28F402C034E0D3
S11302906FE33F5F01C03FEDFD0115963C93159759
S11302A0361720F018966C93189705C0631B6032BC
S11302B008F460E260878F5F8913B8CF0D5D1F4F2C
S11302C00215130509F08DCF80913E21863008F484
S11302D086E0E2E0F0E2848390913F21890F8583F8
S11302E053FE08C041E250E060E070E084E291E235
S11302F00E94660A80914221809306042596CDBF10
S1130300DEBFDF91CF911F910F91FF90EF90DF90AF
S1130310CF90BF90AF909F908F907F906F905F90A1
S11303204F903F902F9008951F920F920FB60F9207
S113033011242F923F924F925F926F927F928F92ED
S11303409F92AF92BF92CF92DF92EF92FF920F9360
S11303501F932F933F934F935F936F937F938F9349
S11303609F93AF93BF93EF93FF93CF93DF93CDB757
S1130370DEB72E97CDBFDEBFECE0F1E22081318104
S1130380428153816481758186819781A1E00E94B5
S11303903C0A208331834283538364837583868339
S11303A097830F2EF0E12F2EF0E23F2EF02D812CBB
S11303B0912CF101ACE0B1E2ED90FC908389948939
S11303C0E81AF90A478550E0B7016F5F7F4F649FD1
S11303D0C001659F900D749F900D11246C01D594FC
S11303E0C794D594C794D594C794D594C794D594F9
S11303F0C794841B950B95958795959587959595A9
S113040087959595879595958795C81AD90A828970
S1130410809346068181882309F4CEC060E070E0B1
S1130420B12C93E2989DD001999DB00D1124A05F49
S1130430BF4DC982DA82AD87BE879081992311F0BE
S11304408B2D03C09B2D9095890F0D851E85080F5C
S1130450111DD8011396AC904A2D50E0CA01880FA3
S1130460991F835A9E4DDC012D913C91D80116961B
S11304708C9190E0281B390B09F492C000891189F2
S1130480609F3001619F700C709F700C1124E61402
S1130490F7040CF485C0121613060CF04EC06981E3
S11304A07A812C153D050CF4B901681B790B261BC8
S11304B0370B09F05DC0278530E0220F331F220F70
S11304C0331F3195219531098A01000F111F000F47
S11304D0111F0C521F4DACE0B1E26D917D918D91D5
S11304E09C91438C548C658C768C641975098609AF
S11304F09709689414F89695879577956795169457
S1130500D1F7D8014D905D906D907C901397460E75
S1130510571E681E791E4D925D926D927C921397C0
S1130520BA01660F771F68507F4DDB018D919C9156
S1130530119701968D939C931BC066277727621BA6
S1130540730BC616D70614F469817A81860F971F38
S1130550280F391FBA01660F771F635A7E4DDB01DE
S11305608D919C91892B21F4121613060CF48AC2E6
S1130570440F551F435A5E4DDA012D933C933323A8
S11305807CF020915C2181E090E002C0880F991FEB
S1130590AA94E2F7822B80935C218289809345069A
S11305A0B3946B2D0B2C000C770B8181282F30E03A
S11305B0621773070CF441CFBFEF8B1A9B0AE3E277
S11305C02E0E311CF4E08F16910409F0F2CE8091C6
S11305D00220882309F477C22CE031E2D901BC91CE
S11305E0BD83F901F181FE83D9011296BC91BF83C9
S11305F0F901F381F887D9011496BC91B987F901FF
S1130600F581FA87D9011696BC91BB87F901F78168
S1130610FC8722E030E2D90116964D915C91179740
S1130620ED81FE81E41BF50BAF015695479552957C
S113063042954F7045275F70452715962C91159765
S113064030E02417350708F081C01C9211961C92E3
S1130650119712964C91A42EB12CB3E24B9F9001AA
S11306601124205F3F4DF901228130E0B901645F1C
S11306707E4DDB0151965C91652F70E06E5F7F4F7C
S11306806530710518F4552309F41DC2245F3E4DED
S1130690F901118A53E25A9D90015B9D300D11249A
S11306A0205F3F4DD9011196CC90CC2019F1B3E2D3
S11306B04B9FA00111244D5E5F4DD12CF12CFA010A
S11306C020814F5F5F4F30E0220F331F235A3E4D8E
S11306D0D9010D911C91238130E061E0201731078D
S11306E009F460E0D62AFA011282F394FC10E7CFF1
S11306F0D110E9C123E22A9DA0012B9D500D1124A4
S1130700405F5F4D9A012D5E3F4FED81DA015396B4
S1130710EC93EE81D9011196EC931197FF81129617
S1130720FC931297688513966C93139779851496A6
S11307307C9314978A8515968C9315979B851696AA
S11307409C931697EC851796EC93BDC120910320DA
S11307502111B9C120910620222309F4B4C122E059
S113076030E241E0D90111964C931197F090402169
S113077012966C91A62EB12CB3E26B9F90011124BA
S1130780205F3F4DF901228130E0A901445F5E4DB5
S1130790DA0151967C91472F50E04F1951094E5F71
S11307A05F4F4530510548F451E0F11001C050E06D
S11307B041E0711140E0541386C1A901445F5E4DCC
S11307C0FA01F18A43E24A9D90014B9D300D1124B8
S11307D0205F3F4DD9011196EC90EE20B1F1B3E2C8
S11307E06B9F900111242D5E3F4D70E060E0CF2C93
S11307F0D12CF90140812F5F3F4F50E0440F551F2A
S1130800435A5E4DDA018D909C90438150E011E093
S11308104815590509F410E0712BFF2021F0F90166
S11308204085411104C0D90112961C9209C04C9D07
S113083080014D9D100D1124F9014581410F428322
S11308406F5F6E11D6CF71113EC123E22A9DA001C4
S11308502B9D500D1124405F5F4D9A012D5E3F4F3B
S1130860ED81DA015396EC93EE81D9011196EC9364
S11308701197FF811296FC931297688513966C93D7
S11308801397798514967C9314978A8515968C937F
S113089015979B8516969C931697EC851796EC9363
S11308A012C1FC01EE0FFF1FE35AFE4D208131817E
S11308B01216130644F4FC01EE0FFF1FE35AFE4D1B
S11308C02081318101C020E02D930196893091056A
S11308D041F780915C21809347211B821C8268949C
S11308E0EE24E3F801E010E0D8010B8002C0AA0F67
S11308F0BB1F0A94E2F7ECE0F1E220E030E0D12CF7
S1130900F12C6D2D70E075956795D62E4F2D50E026
S113091055954795F42E80915C2190E0022E02C0FB
S1130920959587950A94E2F780FF0DC0808590E045
S11309308A239B23892B21F0862F8068D82E03C01D
S1130940942F9068F92E2F5F3F4F31962830310550
S1130950C1F68E2D880F90E0FC01EA5BFE4DD0823B
S1130960FC01E95BFE4DF082EA94AB81BC811196F7
S1130970AB83BC83E110B8CF1092582110925C2154
S113098080911C21882321F080E88093050603C010
S113099080E88093060680910C21837039F4E0E0AE
S11309A0F2E088E081A38081846080832CE031E2DE
S11309B0F901F081FD83D9011196BC91BE83F9013F
S11309C0F281FF83D9011396BC91B887F901F481B0
S11309D0F987D9011596BC91BA87F901F681FB878D
S11309E0D9011796BC91BC87ED81EE0290011124C8
S11309F020933808309339088D819E81AF81B88562
S1130A00A770BB27892B8A2B8B2B41F448E350E03A
S1130A1061E270E084ED90E20E94660A80915B21BD
S1130A208332E9F480915A2190910120981312C0E5
S1130A3010925B21E0ECF8E0838182608383109262
S1130A401001E0E0F1E081898823ECF380E78093F2
S1130A50C2080AC080915A218093012005C0809168
S1130A605A2181508093012087E491E280934521AB
S1130A7090934621E0E4F9E084858160848783E0F3
S1130A80868326C0ACE0B1E28C91838F80910D21E6
S1130A90848F80910E21858F80910F21868F809184
S1130AA01021878F8091112180A38091122181A32D
S1130AB08091132182A3440F551F435A5E4DDA01DE
S1130AC02D933C935ECDA4E1B1E280E090E0E9CEC9
S1130AD02E96CDBFDEBFDF91CF91FF91EF91BF91F5
S1130AE0AF919F918F917F916F915F914F913F91C2
S1130AF02F911F910F91FF90EF90DF90CF90BF90B7
S1130B00AF909F908F907F906F905F904F903F90A9
S1130B102F900F900FBE0F901F9018951F920F9259
S1130B200FB60F921124AF92BF92DF92EF92FF9211
S1130B300F931F932F933F934F935F936F937F93E1
S1130B408F939F93AF93BF93CF93DF93EF93FF93D1
S1130B50809110029091110220910020243008F01D
S1130B605FC1BC016E5E73416B36774608F049C1C4
S1130B70A22EB12CECE0F1E261E070E0022E02C0A2
S1130B80660F771F0A94E2F73589362B358B853447
S1130B906BE196070CF088C080E190E0022E02C061
S1130BA0880F991F0A94E2F7432F50E048235923F2
S1130BB0452B09F474C043E24A9DF0014B9DF00DAE
S1130BC01124E05FFF4D428150E0FA01E45FFE4DE5
S1130BD0E1896E2F70E06E5F7F4F6530710518F408
S1130BE0EE2309F45CC0FA01E45FFE4D118A43E28E
S1130BF04A9DF0014B9DF00D1124E05FFF4DD18023
S1130C00DD2019F1C3E22C9FA00111244D5E5F4D3C
S1130C1000E010E0DA01EC914F5F5F4FF0E0EE0F7F
S1130C20FF1FE35AFE4DE080F18013966C9170E053
S1130C30E1E06E157F0509F4E0E00E2BFA01128263
S1130C401F5F1D11E7CF01112AC063E26A9DA00155
S1130C506B9D500D1124EA01C05FDF4DDE015396F8
S1130C60ECE0F1E240814B8B418111964C9311975A
S1130C70428112964C931297438113964C93139787
S1130C80448114964C931497458115964C9315976B
S1130C90468116964C931697478117964C938095E8
S1130CA0382330932121A8C18059914264E570E032
S1130CB00E94280A6530710514F465E070E06F3F06
S1130CC0710519F014F06FEF70E080E190E0022EEE
S1130CD002C0880F991F0A94E2F7382B3093212120
S1130CE0162F83E28A9DF0018B9DF00D1124E05FA5
S1130CF0FF4D428150E0FA01E45FFE4D31897727D0
S1130D00832F90E0861B970B0296059748F491E099
S1130D10111101C090E081E0311180E098136CC1A1
S1130D20FA01E45FFE4D118B83E28A9DF0018B9DF5
S1130D30F00D1124E05FFF4D01810023B9F1F3E2CE
S1130D402F9FD0011124AD5EBF4D50E030E0ED0186
S1130D50E8811196F0E0EE0FFF1FE35AFE4D01907B
S1130D60F081E02D8B8190E041E08E179F0709F41C
S1130D7040E0542B112329F018968C911897811177
S1130D8004C012961C9212970CC0869FF001879F94
S1130D90F00D112415968C9115978F0F12968C9344
S1130DA012973F5F0313D3CF511126C133E23A9D0B
S1130DB0C0013B9D900D1124EC01C05FDF4DDE01AD
S1130DC05396ECE0F1E280818B8B818111968C93B8
S1130DD01197828112968C931297838113968C9328
S1130DE01397848114968C931497858115968C930C
S1130DF01597868116968C931697878117968C93F0
S1130E00FBC0ECE0F1E281E190E0022E02C0880F29
S1130E10991F0A94E2F7809595898923858BECC004
S1130E20082E892F000C881F990B000C881F991F0E
S1130E30382F8431C0F040913E214423A1F0E09149
S1130E400420AE2FB0E040912121642F70E040E1F6
S1130E5050E00E2E02C0440F551F0A94E2F74623B9
S1130E605723452B29F0E2E0F0E213821082C4C03C
S1130E708A3308F496C040910520443109F091C0AA
S1130E808093052083E28A9FE0018B9FD00D11247B
S1130E90C05FDF4D81E0373408F480E0888383E26B
S1130EA08A9FE0018B9FD00D1124C05FDF4D8A81A2
S1130EB090E0EC01C45FDE4D3989432F50E04D5F73
S1130EC051094530510510F4311166C0EC01C45F7D
S1130ED0DE4D3FEF398B83E28A9FE0018B9FD00D7B
S1130EE01124C05FDF4D6981662369F133E2E39F1A
S1130EF0F0011124ED5EFF4D50E030E07FEFCF01B3
S1130F0040813196C42FD0E0CC0FDD1FC35ADE4D93
S1130F1008811981EC018B8190E041E080179107F1
S1130F2009F440E0542B8085811102C0128206C06E
S1130F30789FC00111248581890F82833F5F6313E9
S1130F40DECF511129C083E28A9FE0018B9FD00D2F
S1130F501124C05FDF4DDE015396ECE0F1E28081A5
S1130F608B8B818111968C931197828112968C932D
S1130F701297838113968C931397848114968C9380
S1130F801497858115968C931597868116968C9364
S1130F901697878117968C93E2E0F0E21082118213
S1130FA02BC0393348F580910520381728F5E2E045
S1130FB0F0E284E18383ACE0B1E28C918683119604
S1130FC08C911197878312968C9112978087139630
S1130FD08C911397818714968C9114978287159618
S1130FE08C911597838716968C91169784871796FC
S1130FF08C91858781E0808381E0820F809300203B
S11310002E5F220F220F220F20932102853030F40D
S1131010E0E0F2E080818460808302C010920020CE
S1131020FF91EF91DF91CF91BF91AF919F918F91FC
S11310307F916F915F914F913F912F911F910F91EC
S1131040FF90EF90DF90BF90AF900F900FBE0F9086
S11310501F9018951F920F920FB60F9211242F9381
S11310603F934F935F936F937F938F939F93AF932C
S1131070BF93CF93DF93EF93FF93E0ECF8E080818D
S1131080938191FF70C09FED980F943008F069C070
S113109093819D7F938380935B21833279F4809144
S11310A00C2180935A21E0E0F1E081E290E0868B0C
S11310B0978B84E8808B1092C20855C082E080939D
S11310C0450685E18A95F1F7000080915B21823223
S11310D059F4E0E0F1E081E290E086A397A384E292
S11310E091E280A791A739C080915B218132C9F434
S11310F0CCE9D0E288E1ECE0F1E2DE0101900D926E
S11311008A95E1F766E1CE010E9476008E8B9F8B73
S1131110E0E0F1E088E190E086A397A3C0A7D1A71F
S11311201CC088E3E4EDF0E2ACE9B0E201900D927A
S11311308A95E1F766E38CE990E20E947600ACE9D7
S1131140B0E2D6968D939C93D797E0E0F1E088E3E4
S113115090E086A397A3A0A7B1A784E88093200179
S113116002C010925B21FF91EF91DF91CF91BF916B
S1131170AF919F918F917F916F915F914F913F912B
S11311802F910F900FBE0F901F9018951F920F92E2
S11311900FB60F9211242F933F934F935F936F9346
S11311A07F938F939F93AF93BF93EF93FF9310928B
S11311B05B21E0ECF8E083818260838380E68283B4
S11311C06FE18CE990E20E9476002091BB2030917F
S11311D0BC208217930711F40E948E0080E1809353
S11311E01101FF91EF91BF91AF919F918F917F91E9
S11311F06F915F914F913F912F910F900FBE0F9080
S11312001F9018951F920F920FB60F9211248F936F
S113121082E08093460610925B2180E18093210155
S11312208F910F900FBE0F901F9018951F920F92E1
S11312300FB60F9211242F938F939F93EF93FF93E5
S1131240E0914521F0914621CF01019680934521FB
S1131250909346212081209364068955914211F48C
S11312601092460981E080934C09FF91EF919F9180
S11312708F912F910F900FBE0F901F901895E0E063
S1131280F6E080E88183A0EBB0E08FE38C9387E005
S1131290808B80E4878B8BEF80934106E0E6F6E059
S11312A08FEF81838C9387E4808BE0E5F0E082E02C
S11312B0828380818A608083818183FFFDCFE0E522
S11312C0F0E0818181FFFDCFA0E5B0E082E01696D9
S11312D08C93169781E08093600098ED94BFE0E4CE
S11312E0F0E080838AE08C9383E08383E0E0F4E0A1
S11312F0818180FDFDCF88ED84BF81E08093420031
S113130047E04093A200E0E0F4E020E130E02287EF
S1131310338792E09283908310861186E0ECF8E0A4
S11313209AE193839FE094839CE0968330E1378332
S113133090E69283E0E0F2E0808392E1918390E290
S1131340928323E02483408780A382A344E044A7BC
S1131350E0E0F8E0208325E021833283848340E0C9
S113136050E446AB57AB10AE11AE9087E0E4F9E021
S11313702083118221EA31E026AB37AB9087E0E08D
S1131380F1E0818B91E1928B2CE930E2208F318F57
S11313902CE4248B81A392A39DE494A390EA9083EC
S11313A08093D000789408950E943F0948E350E068
S11313B061E270E084ED90E20E94620A4FE150E045
S11313C060E070E08CE990E20E94620ACCE9D0E22D
S11313D01D8E198A6FE1CE010E9476008F8F98A32B
S11313E00E948E00FFCFE0E1F0E293E0918387E07A
S11313F0838386E0848385E08583128280E1828B07
S113140094A384E086A397A382E080A721E025A388
S113141030E235AB809357202093592010925A2004
S113142010925B208093582030E4309368202093FE
S11314307A2028E020937C2010927D2010927E2038
S113144090937B2090E890938B20809304200895C0
S113145097FB072E16F4009407D077FD09D00E945D
S1131460480A07FC05D03EF4909581959F4F089556
S1131470709561957F4F08950024A7FD00942A0F6D
S1131480301D401D501D601D701D801D901D089550
S1131490AA1BBB1B51E107C0AA1FBB1FA617B70796
S11314A010F0A61BB70B881F991F5A95A9F78095B2
S11314B09095BC01CD010895EE0FFF1F0590F491A6
S11314C0E02D09946050704F0C949F0ADC01A40F26
S11314D0B51F4150504048F0CB01840F951F2E9109
S11314E00E94770A41505040D0F70895262F0E9459
S11314F09B0A0080021619F00E94820A0197019744
S11315000895262FAF93BF93E0ECF1E0378537FDC4
S1131510FDCFDC01A050B04F2C9325E3228728EDAA
S113152031E024BF33870196BF91AF91089503D072
S1131530808199270895FC01E050F04F0895FB0144
S1131540DC0102C001900D9241505040D8F708953B
S1071550F894FFCF39
S9030000FC
