S0120000436F6E74726F6C6C65722E73726563EE
S11300000C9457000C9474000C9474000C94F00835
S11300100C942D090C9474000C9474000C94AF018E
S11300200C9474000C9474000C9474000C9474007C
S11300300C9474000C9474000C9474000C9474006C
S11300400C9474000C9474000C9474000C9474005C
S11300500C9474000C9474000C9474000C94500868
S11300600C9474000C9474000C9474000C9474003C
S11300700C9474000C9474000C9474000C9474002C
S11300800C9474000C9474000C94B4050C947400D7
S11300900C944A090C9474000C9474000C9474002D
S11300A00C9474000C9474000C9474001C0A1124B5
S11300B01FBECFEFCDBFD7E2DEBF21E2A0E0B0E2AA
S11300C001C01D92AE36B207E1F710E0C7E5D0E0FB
S11300D004C02197FE010E94850AC635D107C9F7DD
S11300E00E94FD090C94D10A0C940000E0EDF0E0AC
S11300F020EC208321E02083615052F0E82FF92F77
S1130100A0EDB0E0819113968C9313976150D2F7D0
S1130110E0EDF0E081E0818384819581108208958F
S11301202F923F924F925F926F927F928F929F9203
S1130130AF92BF92CF92DF92EF92FF920F931F93F1
S1130140CF93DF93CDB7DEB72897CDBFDEBFE09066
S1130150B820EE2024F58091AC20882304F58F701C
S113016090E0FC01EE0FFF1FEE0FFF1FED52FF4D5D
S1130170ABE9B0E24D915D916D917C911397408311
S1130180518362837383880F991FFC01E950FF4DEB
S113019018968D919C91199780839183CAC081E2AE
S11301A0EBE9F0E2A3E2B1E201900D928A95E1F766
S11301B00091342110E0EBE0F1E2A080B180928064
S11301C083807480658056804780309133216FE04E
S11301D070E20F2EFBE92F2EF0E23F2EF02D4E2D74
S11301E04071C42E0F2EFFEDDF2EF02D6B837C8328
S11301F0F32E2B813C81D9011296EC91F0E0ED5D58
S1130200FE4D92898689903208F490E2913A08F082
S113021090EAF9019787803418F490E0019602C0BF
S113022080E490E0D90150968D939C935197119658
S11302309C91992309F459C0AB81BC81139680E049
S113024029833A833D91383050F4A801032E02C02B
S1130250559547950A94E2F740FD03C023C0CC208E
S113026051F1AF83B887632F70E0660F771F645A2C
S11302707E4DFB016081718112964C91129750E082
S11302804617570751F4E981FA81A38AB48A958AFB
S1130290868A778A608E518E428EEF81F885F2824B
S11302A0383060F4E32FF0E0ED5DFE4D4081508581
S11302B04E3D40F405C05FE344E002C05FE344E028
S11302C04F5F01C04D2DFD0115964C9315974517B1
S11302D020F018965C93189705C0541B503208F40C
S11302E050E250878F5F8913ADCF4B815C814D5DA8
S11302F05F4F4B835C834215530509F07ACF80919D
S11303003D21863008F486E0E1E0F0E284839091B8
S11303103E21890F8583E3FE08C041E250E060E09E
S113032070E083E291E20E948F0A809141218093E0
S113033006042896CDBFDEBFDF91CF911F910F91A8
S1130340FF90EF90DF90CF90BF90AF909F908F90F1
S11303507F906F905F904F903F902F9008951F92E1
S11303600F920FB60F9211242F923F924F925F92E9
S11303706F927F928F929F92AF92BF92CF92DF92B1
S1130380EF92FF920F931F932F933F934F935F939B
S11303906F937F938F939F93AF93BF93EF93FF9349
S11303A0CF93DF93CDB7DEB72C97CDBFDEBFEBE0A5
S11303B0F1E220813181428153816481758186819A
S11303C09781A1E00E94650A20833183428353838D
S11303D064837583868397830F2EFFE06F2EF0E28C
S11303E07F2EF02D19821A8229813A81F301ABE024
S11303F0B1E2CD90DC9083899489C81AD90A4785E3
S113040050E0B6016F5F7F4F649FC001659F900D00
S1130410749F900D11244C0195948794959487941E
S1130420959487949594879495948794841B950BBD
S113043095958795959587959595879595958795A0
S113044095958795881A990A8289809346064181F1
S1130450442309F403C1A0E0B0E0B12C53E2529F5D
S1130460C001539F900D11249C01215F3F4D382CF6
S1130470292C2D016B827C822D833E8380818823ED
S113048011F04B2D03C08B2D8095480F50E00D814A
S11304901E81040F151FD8011396AC906A2D70E0CD
S11304A0CB01880F991F845A9E4DDC012D913C91FC
S11304B0D80116968C9190E0281B390B09F4C0C022
S11304C0E088F1884E9C80014F9C100D5E9C100DBD
S11304D01124C016D1060CF4B3C0121613060CF086
S11304E061C0A32DB22D281539050CF4D901A81B20
S11304F0B90B2A1B3B0BC9019927AD81BE81A40FFF
S1130500B51F19964C9150E0841795070CF0F6C26C
S1130510878590E0880F991F880F991F9195819581
S11305209109DB01AA0FBB1FAA0FBB1FAD014D52DE
S11305305F4DABE0B1E20D911D912D913C91438C47
S1130540548C658C768C041915092609370968942E
S113055014F836952795179507951694D1F7DA016F
S11305604D905D906D907C901397040D151D261D84
S1130570371D0D931D932D933C931397DB01AA0F05
S1130580BB1FA950BF4D2D913C9111972F5F3F4F39
S11305902D933C93660F771FDB01A45ABE4D8D93B8
S11305A09C933FC0AA27BB27A21BB30B8A169B06AA
S11305B014F4A32DB22D8A0F9B1F280F391FDB01C2
S11305C0AA0FBB1FA45ABE4D8D919C91892B01F596
S11305D0121613060CF484C21BC09C01ABE0B1E2FA
S11305E08C91838F80910C21848F80910D21858F34
S11305F080910E21868F80910F21878F8091102109
S113060080A38091112181A38091122182A376C2BB
S1130610660F771FDB01A45ABE4D2D933C93332301
S11306207CF020915B2181E090E002C0880F991F4B
S1130630AA94E2F7822B80935B21828980934506FA
S1130640B3944B2C0B2C000C55084181842F90E063
S1130650481659060CF412CF6B807C80E981FA812C
S11306603196E983FA83F3E26F0E711C89819A81D2
S1130670049709F0B9CE80910120882309F449C276
S11306802BE031E2D901BC91BD83F901F181FE83F4
S1130690D9011296BC91BF83F901F381F887D9017E
S11306A01496BC91B987F901F581FA87D901169698
S11306B0BC91BB87F901F781FC8721E030E2D901C5
S11306C016964D915C911797ED81FE81E41BF50B15
S11306D0AF0156954795529542954F7045275F70E7
S11306E0452715962C91159730E02417350708F007
S11306F081C01C9211961C92119712964C91A42EB3
S1130700B12CB3E24B9F90011124215F3F4DF901BD
S1130710228130E0B901655F7E4DDB0151965C9129
S1130720652F70E06E5F7F4F6530710518F45523B7
S113073009F4EFC1255F3E4DF901118A53E25A9D38
S113074090015B9D300D1124215F3F4DD90111961D
S1130750CC90CC2019F1B3E24B9FA00111244E5E42
S11307605F4DD12CF12CFA0120814F5F5F4F30E0B7
S1130770220F331F245A3E4DD9010D911C91238120
S113078030E061E02017310709F460E0D62AFA016D
S11307901282F394FC10E7CFD110BBC123E22A9D4F
S11307A0A0012B9D500D1124415F5F4D9A012D5ED8
S11307B03F4FED81DA015396EC93EE81D901119606
S11307C0EC931197FF811296FC9312975885139618
S11307D05C931397898514968C9314979A85159630
S11307E09C931597EB851696EC931697FC851796B4
S11307F0FC938FC12091022021118BC120910520EF
S1130800222309F486C121E030E241E0D9011196A6
S11308104C931197F0903F2112966C91A62EB12C17
S1130820B3E26B9F90011124215F3F4DF9012281B6
S113083030E0A901455F5E4DDA0151967C91472F66
S113084050E04F1951094E5F5F4F4530510548F450
S113085051E0F11001C050E041E0711140E0541347
S113086058C1A901455F5E4DFA01F18A43E24A9DF0
S113087090014B9D300D1124215F3F4DD9011196FC
S1130880EC90EE20B1F1B3E26B9F900111242E5E47
S11308903F4D70E060E0CF2CD12CF90140812F5FF7
S11308A03F4F50E0440F551F445A5E4DDA018D907E
S11308B09C90438150E011E04815590509F410E07B
S11308C0712BFF2021F0F9014085411104C0D901A9
S11308D012961C9209C04C9D80014D9D100D11244F
S11308E0F9014581410F42836F5F6E11D6CF7111BB
S11308F010C123E22A9DA0012B9D500D1124415FBC
S11309005F4D9A012D5E3F4FED81DA015396EC93D2
S1130910EE81D9011196EC931197FF811296FC9305
S11309201297588513965C931397898514968C9324
S113093014979A8515969C931597EB851696EC93C8
S11309401697FC851796FC93E4C0FC01EE0FFF1F7D
S1130950E45AFE4D208131811216130644F4FC0141
S1130960EE0FFF1FE45AFE4D2081318101C020E0CB
S11309702D9301968930910541F780915B218093F5
S1130980462119821A826894EE24E3F801E010E00B
S1130990D801098002C0AA0FBB1F0A94E2F7EBE05A
S11309A0F1E220E030E0D12CF12C6D2D70E0759552
S11309B06795D62E4F2D50E055954795F42E80918E
S11309C05B2190E0022E02C0959587950A94E2F788
S11309D080FF0DC0808590E08A239B23892B21F022
S11309E0962F9068D92E03C0842F8068F82E2F5F2D
S11309F03F4F319628303105C1F68E2D880F90E097
S1130A00FC01EB5BFE4DD082FC01EA5BFE4DF08203
S1130A10EA94A981BA811196A983BA83E110B8CF67
S1130A201092572110925B2180911B21882321F081
S1130A3080E88093050603C080E8809306068091D1
S1130A400B21837039F4E0E0F2E088E081A3808137
S1130A508460808380910B218F7119F481E08093ED
S1130A60470680910B2190910C21A0910D21B0910A
S1130A700E21A770BB27892B8A2B8B2B41F448E3CB
S1130A8050E061E270E083ED90E20E948F0A809171
S1130A905A218333B9F4809159218F5F809359216E
S1130AA0833080F01092100110925A21E0ECF8E0AB
S1130AB083818260838380E78283E0E0F1E081893F
S1130AC08823ECF386E491E28093442190934521BA
S1130AD0E0E4F9E084858160848783E086831EC036
S1130AE0AD81BE81A40FB51F19968C9190E0A90128
S1130AF05527481759070CF470CD70CD660F771F32
S1130B00DB01A45ABE4D2D933C9333230CF089CDC5
S1130B1097CDA3E1B1E280E090E017CF2C96CDBF52
S1130B20DEBFDF91CF91FF91EF91BF91AF919F9184
S1130B308F917F916F915F914F913F912F911F9171
S1130B400F91FF90EF90DF90CF90BF90AF909F9068
S1130B508F907F906F905F904F903F902F900F9069
S1130B600FBE0F901F9018951F920F920FB60F9201
S1130B701124AF92BF92DF92EF92FF920F931F93D3
S1130B802F933F934F935F936F937F938F939F9391
S1130B90AF93BF93CF93DF93EF93FF9380911002B2
S1130BA09091110220910020243008F05FC1BC0113
S1130BB06A5873416F3C774608F049C1A22EB12CA4
S1130BC0EBE0F1E261E070E0022E02C0660F771FF5
S1130BD00A94E2F73589362B358B85346BE1960719
S1130BE00CF088C080E190E0022E02C0880F991FAB
S1130BF00A94E2F7432F50E048235923452B09F484
S1130C0074C043E24A9DF0014B9DF00D1124E15F55
S1130C10FF4D428150E0FA01E55FFE4DE1896E2F00
S1130C2070E06E5F7F4F6530710518F4EE2309F4B0
S1130C305CC0FA01E55FFE4D118A43E24A9DF00172
S1130C404B9DF00D1124E15FFF4DD180DD2019F1A2
S1130C50C3E22C9FA00111244E5E5F4D00E010E022
S1130C60DA01EC914F5F5F4FF0E0EE0FFF1FE45AA3
S1130C70FE4DE080F18013966C9170E0E1E06E151A
S1130C807F0509F4E0E00E2BFA0112821F5F1D11AB
S1130C90E7CF01112AC063E26A9DA0016B9D500D4C
S1130CA01124EA01C15FDF4DDE015396EBE0F1E26E
S1130CB040814B8B418111964C931197428112963E
S1130CC04C931297438113964C9313974481149633
S1130CD04C931497458115964C9315974681169617
S1130CE04C931697478117964C93809538233093ED
S1130CF02021A8C18059914264E570E00E94510A04
S1130D006530710514F465E070E06F3F710519F00A
S1130D1014F06FEF70E080E190E0022E02C0880FC3
S1130D20991F0A94E2F7382B30932021162F83E27F
S1130D308A9DF0018B9DF00D1124E15FFF4D4281EE
S1130D4050E0FA01E55FFE4D31897727832F90E06B
S1130D50861B970B0296059748F491E0111101C088
S1130D6090E081E0311180E098136CC1FA01E55FF5
S1130D70FE4D118B83E28A9DF0018B9DF00D1124B1
S1130D80E15FFF4D01810023B9F1F3E22F9FD00110
S1130D901124AE5EBF4D50E030E0ED01E8811196C4
S1130DA0F0E0EE0FFF1FE45AFE4D0190F081E02DBC
S1130DB08B8190E041E08E179F0709F440E0542BAB
S1130DC0112329F018968C911897811104C012965A
S1130DD01C9212970CC0869FF001879FF00D11247E
S1130DE015968C9115978F0F12968C9312973F5FDF
S1130DF00313D3CF511126C133E23A9DC0013B9D69
S1130E00900D1124EC01C15FDF4DDE015396EBE040
S1130E10F1E280818B8B818111968C931197828171
S1130E2012968C931297838113968C9313978481D3
S1130E3014968C931497858115968C9315978681B7
S1130E4016968C931697878117968C93FBC0EBE0CC
S1130E50F1E281E190E0022E02C0880F991F0A940A
S1130E60E2F7809595898923858BECC0082E892F1C
S1130E70000C881F990B000C881F991F382F843190
S1130E80C0F040913D214423A1F0E0910320AE2F16
S1130E90B0E040912021642F70E040E150E00E2E3C
S1130EA002C0440F551F0A94E2F746235723452BEB
S1130EB029F0E1E0F0E213821082C4C08A3308F41E
S1130EC096C040910420443109F091C080930420DD
S1130ED083E28A9FE0018B9FD00D1124C15FDF4D17
S1130EE081E0373408F480E0888383E28A9FE0015C
S1130EF08B9FD00D1124C15FDF4D8A8190E0EC01FE
S1130F00C55FDE4D3989432F50E04D5F51094530AF
S1130F10510510F4311166C0EC01C55FDE4D3FEFA1
S1130F20398B83E28A9FE0018B9FD00D1124C15F2E
S1130F30DF4D6981662369F133E2E39FF0011124F7
S1130F40EE5EFF4D50E030E07FEFCF0140813196FF
S1130F50C42FD0E0CC0FDD1FC45ADE4D08811981A7
S1130F60EC018B8190E041E08017910709F440E0A7
S1130F70542B8085811102C0128206C0789FC00163
S1130F8011248581890F82833F5F6313DECF511162
S1130F9029C083E28A9FE0018B9FD00D1124C15F99
S1130FA0DF4DDE015396EBE0F1E280818B8B818192
S1130FB011968C931197828112968C931297838148
S1130FC013968C931397848114968C93149785812C
S1130FD015968C931597868116968C931697878110
S1130FE017968C93E1E0F0E2108211822BC0393322
S1130FF048F580910420381728F5E1E0F0E284E117
S11310008383ABE0B1E28C91868311968C91119726
S1131010878312968C911297808713968C911397DD
S1131020818714968C911497828715968C911597C5
S1131030838716968C911697848717968C9185874B
S113104081E0808381E0820F809300202E5F220F55
S1131050220F220F20932102853030F4E0E0F2E0E9
S113106080818460808302C010920020FF91EF9100
S1131070DF91CF91BF91AF919F918F917F916F91AC
S11310805F914F913F912F911F910F91FF90EF909E
S1131090DF90BF90AF900F900FBE0F901F901895E8
S11310A01F920F920FB60F9211242F933F934F93D9
S11310B05F936F937F938F939F93AF93BF93CF93DC
S11310C0DF93EF93FF93E0ECF8E08081938191FF4D
S11310D074C09FEC980F943008F06DC093819D7F8D
S11310E0938380935A21833389F410925921E0E049
S11310F0F1E08BE990E2808F918F81E290E0868B22
S1131100978B84E8808B1092C20857C082E080934A
S113111045068FE692E00197F1F700C00000809148
S11311205A21823359F4E0E0F1E084E290E086A3AE
S113113097A383E291E280A791A739C080915A21B5
S11311408133C9F4CBE9D0E288E1EBE0F1E2DE01DE
S113115001900D928A95E1F766E1CE010E94760036
S11311608E8B9F8BE0E0F1E08BE190E086A397A368
S1131170C0A7D1A71CC088E3E3EDF0E2ABE9B0E27D
S113118001900D928A95E1F766E38BE990E20E9463
S11311907600ABE9B0E2D6968D939C93D797E0E0C6
S11311A0F1E08BE390E086A397A3A0A7B1A784E81E
S11311B08093200102C010925A21FF91EF91DF9198
S11311C0CF91BF91AF919F918F917F916F915F91DB
S11311D04F913F912F910F900FBE0F901F90189534
S11311E01F920F920FB60F9211242F933F934F9398
S11311F05F936F937F938F939F93AF93BF93EF937B
S1131200FF9310925A21E0ECF8E08AE1838380E6B0
S113121082836FE18BE990E20E9476002091BA20EC
S11312203091BB208217930711F40E949000E0E0F4
S1131230F1E0108A81E3818BFF91EF91BF91AF912F
S11312409F918F917F916F915F914F913F912F91DA
S11312500F900FBE0F901F9018951F920F920FB60C
S11312600F9211248F93EF93FF9382E080934606AD
S113127010925A218AE18093C308E0E0F1E010A2C1
S113128081E381A3FF91EF918F910F900FBE0F9097
S11312901F9018951F920F920FB60F9211242F933F
S11312A08F939F93EF93FF93E0914421F091452115
S11312B0CF0101968093442190934521208120936E
S11312C064068855914211F41092460981E0809396
S11312D04C09FF91EF919F918F912F910F900FBE29
S11312E00F901F901895E0E0F6E080E88183A0EB72
S11312F0B0E08FE38C9387E0808B80E4878B8BEF67
S113130080934106E0E6F6E08FEF81838C9387E4D7
S1131310808BE0E5F0E082E0828380818A608083D4
S1131320818183FFFDCFE0E5F0E0818181FFFDCF86
S1131330A0E5B0E082E016968C93169781E0809346
S1131340600098ED94BFE0E4F0E080838AE08C9341
S113135083E08383E0E0F4E0818180FDFDCF88EDCC
S113136084BF81E08093420027E02093A200E0E064
S1131370F4E04FE050E04287538792E092839083F9
S113138010861186E0ECF8E09AE193839FE0948361
S11313909CE0968390E1978330E63283E0E0F2E0CC
S11313A0808332E1318330E2328343E04483208717
S11313B080A382A324E024A7E0E4F9E025E02083CD
S11313C0118241EA51E046AB57AB3087E0E0F1E0EF
S11313D0818B31E3328B4CE4448B81A332A38DE4C3
S11313E084A380EA8083E0E7F0E082E880832183BD
S11313F08FE483839483789408950E94730948E367
S113140050E061E270E083ED90E20E948B0A4FE1CC
S113141050E060E070E08BE990E20E948B0ACBE937
S1131420D0E21D8E198A6FE1CE010E9476008F8F63
S113143098A30E949000FFCFEFE0F0E293E0918345
S113144087E0838386E0848385E08583128280E15C
S1131450828B94A384E086A397A382E080A721E0F3
S113146025A330E235AB8093562020935820109268
S1131470592010925A208093572030E430936720EB
S11314802093792028E020937B2010927C201092D6
S11314907D2090937A2090E890938A208093032073
S11314A0089597FB072E16F4009407D077FD09D012
S11314B00E94710A07FC05D03EF4909581959F4FD8
S11314C00895709561957F4F08950024A7FD0094B9
S11314D02A0F301D401D501D601D701D801D901D64
S11314E00895AA1BBB1B51E107C0AA1FBB1FA61767
S11314F0B70710F0A61BB70B881F991F5A95A9F7B9
S113150080959095BC01CD010895EE0FFF1F0590C5
S1131510F491E02D09946050704F0C94C80ADC01DA
S1131520A40FB51F4150504048F0CB01840F951FC4
S11315302E910E94A00A41505040D0F70895262FC2
S11315400E94C40A0080021619F00E94AB0A019797
S113155001970895262FAF93BF93E0ECF1E0378510
S113156037FDFDCFDC01A050B04F2C9325E322873B
S113157028ED31E024BF33870196BF91AF910895E0
S113158003D0808199270895FC01E050F04F08951D
S1131590FB01DC0102C001900D9241505040D8F78C
S10915A00895F894FFCF4A
S9030000FC
