:1000000019C065C232C031C030C02FC02EC02CC252
:1000100052C22BC014C129C028C056C126C025C059
:1000200024C023C022C021C020C0E9C01EC01DC002
:100030001CC01BC011241FBECFEFD4E0DEBFCDBF5C
:1000400011E0A0E0B1E0EAE5F9E002C005900D9210
:10005000A432B107D9F721E0A4E2B1E001C01D92BA
:10006000A533B207E1F765D276C4CACFCF93C82FC4
:100070008460D0D385E08A95F1F700008C2FCAD335
:1000800085E08A95F1F70000CF9108951F93CF93F3
:10009000DF93162FD82FD07FC82FC295C07FB2D341
:1000A00080E4B8D3112321F0D160C16081E001C0A8
:1000B00080E0B0D385E08A95F1F700008D2FD6DF80
:1000C0008C2FD4DF82EFA6D385E08A95F1F700006C
:1000D00086EFA0D385E08A95F1F7000093D381E401
:1000E00099D380E0A9D3C82F85E08A95F1F7000065
:1000F00089D380E48FD382EF8DD385E08A95F1F7A1
:10010000000086EF87D385E08A95F1F700007AD367
:1001100081E480D380E090D382958F70C82B85E0F6
:100120008A95F1F700006ED380E474D382EF72D326
:1001300085E08A95F1F70000C7FDCACF80EF6AD34A
:10014000DF91CF911F9170C35DD380E463D380E0D2
:1001500061D36AD32FEF89EF90E021508040904027
:10016000E1F700C000004ED380E454D380E27EDF8C
:100170005BD38FEC97E00197F1F700C0000060E0DF
:1001800088E284DF60E08CE081CFDF92EF92FF9223
:100190000F931F93CF93DF93D82E8B01C8EED3E03C
:1001A00040E030E08AE0E82EF12CED2DE30FC801AD
:1001B000BE0150D36C9FC0016D9F900D1124081B90
:1001C000190B611104C0411102C0333021F420E346
:1001D000260F41E001C020E2CE01B7013BD3EB0185
:1001E000F0E0E050FF4F20833F5F3430F1F6DF91C5
:1001F000CF911F910F91FF90EF90DF9008951F9284
:100200000F920FB60F9211242F933F938F939F93CA
:1002100080917800909179002091330130913401E0
:10022000820F931F90933401809333019F918F919C
:100230003F912F910F900FBE0F901F9018951F9216
:100240000F920FB60F9211242F933F938F939F938A
:10025000AF93BF938091290190912A019C012F5F58
:100260003F4F30932A0120932901892B69F4809113
:1002700086009091870090932C0180932B018091B0
:100280002E01809324010EC08091860090918700FA
:10029000A0E0B0E08093250190932601A093270170
:1002A000B093280180912E0190912401891B8093A5
:1002B0002D01BF91AF919F918F913F912F910F9001
:1002C0000FBE0F901F9018951F920F920FB60F92AE
:1002D0001124CF92DF92EF92FF922F933F934F938F
:1002E0005F936F937F938F939F93AF93BF93EF939E
:1002F000FF9380912E018F5F80932E0188B520910E
:1003000021013091220190E0821793071CF488B5F7
:100310008F5F0BC088B5209121013091220190E0C0
:10032000281739071CF488B5815088BD80912E01AB
:10033000803108F47FC010922E01809129019091A4
:100340002A01029708F472C090912D014091250175
:10035000509126016091270170912801892F90E02A
:10036000A0E0B0E0DC0199278827840F951FA61F25
:10037000B71F8093250190932601A0932701B09386
:10038000280120912B0130912C0180912501909121
:100390002601A0912701B0912801821B930BA1098E
:1003A000B1098093250190932601A0932701B09372
:1003B000280160912501709126018091270190917B
:1003C00028012AE030E040E050E06BD22093250184
:1003D000309326014093270150932801A0912901D1
:1003E000B0912A01C0902501D0902601E09027010C
:1003F000F0902801119728ED38EB45E050E095D2B8
:10040000A70196014ED2B90181E1BFDE809133018F
:100410009091340134E0959587953A95E1F7909362
:1004200034018093330181E08093300110922A01DE
:100430001092290180917A00806480937A00FF9164
:10044000EF91BF91AF919F918F917F916F915F914C
:100450004F913F912F91FF90EF90DF90CF900F90B1
:100460000FBE0F901F9018951F920F920FB60F920C
:1004700011248F9380912F01811102C0589B0FC0CE
:10048000109232011092310186E087BB84E08093A4
:1004900070008F910F900FBE0F901F901895589875
:1004A000299886E18A95F1F7599A81E08093200195
:1004B0001092B200E5CF1F920F920FB60F92112447
:1004C0001092B2000F900FBE0F901F9018951F92C0
:1004D0000F920FB60F9211242F938F939F935A9BD5
:1004E00004C082E08093700018C080913101909127
:1004F0003201843F914050F480913101909132015A
:100500000196909332018093310105C0599886E19C
:100510008A95F1F7589A109270001092B20086E016
:1005200087BB9F918F912F910F900FBE0F901F90BF
:10053000189586E084B990E297B99BE29AB991E068
:10054000909369009DBB91E294BD29E025BD20EA0E
:1005500027BD20E428BD22E82093810090936F00FE
:1005600097E09093B1009DE09093B3009DE4909349
:10057000B40098E490BF96EC90937C009EE8909332
:100580007A00809364007894DFDD3CD180E942D129
:1005900081E040D181E03ED147D134D18EE93AD1DA
:1005A00081E038D181E036D13FD12CD180E832D101
:1005B00080E030D181E32ED18DEF2CD135D175E0A3
:1005C000C72ED12CE12CF12C04E71FE2EEE14E2ED8
:1005D000512C612C712CF0E22F2EF1E03F2E8091F6
:1005E00030018823E1F30ED180E914D180E012D1EB
:1005F00009D181E90FD180E01FD1C82F15D16C2F0F
:100600000C2E000C770B83E0C0DDFCD08EE902D10C
:1006100080E000D1F7D08FE9FDD080E00DD1D82F58
:1006200003D16D2F0D2E000C770B80E0AEDD009313
:10063000000110930401E6D080E8ECD081E0EAD01C
:10064000E1D081E8E7D081E0F7D0882E912C982C7A
:100650008824092C000CAA08BB0880E0EDD0882A69
:10066000E3D0A6EEB0E0A50194015FD124EC39E01F
:1006700040E050E038D1B9018BE187DDAC2FCD17D8
:100680000CF4AD2F0A2E000CBB0BD29728E930E0FA
:1006900046D14B015C01A301920125D1285F3F4F58
:1006A00080912101909122018217930734F4213A1D
:1006B0003105D4F020EA30E017C0C501B401685319
:1006C0007E4F8F4F9F4FA30192010DD1285F3F4F67
:1006D0008091210190912201281739074CF428308C
:1006E000310514F428E030E03093220120932101F9
:1006F0008091330190913401880F991F87589F4F43
:1007000062EF70E0BBD0709334016093330160916D
:100710003301709134018BE038DD80913301909189
:1007200034018036910514F4589967C0299927C07F
:1007300058991BC081E0C81AD108E108F10881E08E
:10074000C816D104E104F10421F42A992FC02A9A91
:100750002DC0C114D104E104F10469F4299A46E0E2
:10076000C42ED12CE12CF12C2BC081E0C816D10471
:10077000E104F10451F32A9B23C02A9821C058991F
:100780001FC05C991DC081E0C81AD108E108F108BA
:10079000B9F429982A9B0FC010922F0138E5C32E77
:1007A0003FE0D32E32E0E32EF12C0AC0C12CD12C35
:1007B0007601C39405C095E0C92ED12CE12CF12C13
:1007C00080912001882339F01092200186E0C82E04
:1007D000D12CE12CF12C109234011092330160E005
:1007E00080E854DCC0E0D1E061E089914FDC2C1658
:1007F0003D06D1F710923001F2CE81E080932F01B7
:10080000599894CF84EA8093BC008091BC0087FF04
:10081000FCCF08958093BB0084E88093BC00809156
:10082000BC0087FFFCCF089584E98093BC008091D1
:10083000BC0084FFFCCF0895882311F084EC01C034
:1008400084E88093BC008091BC0087FFFCCF80913E
:10085000BB000895AA1BBB1B51E107C0AA1FBB1F09
:10086000A617B70710F0A61BB70B881F991F5A953C
:10087000A9F780959095BC01CD01089597FB072EAF
:1008800016F4009406D077FD08D0E4DF07FC05D00D
:100890003EF4909581959F4F0895709561957F4F97
:1008A0000895A1E21A2EAA1BBB1BFD010DC0AA1FB1
:1008B000BB1FEE1FFF1FA217B307E407F50720F0C9
:1008C000A21BB30BE40BF50B661F771F881F991F44
:1008D0001A9469F760957095809590959B01AC018D
:1008E000BD01CF010895052E97FB16F400940FD09B
:1008F00057FD05D0D6DF07FC02D046F408C050955E
:100900004095309521953F4F4F4F5F4F08959095FB
:100910008095709561957F4F8F4F9F4F08950FD0B1
:10092000B7FF0895821B930B089509D0A59F900DE2
:10093000B49F900DA49F800D911D11240895A29F36
:10094000B001B39FC001A39F01D0B29F700D811D64
:0A0950001124911D0895F894FFCFC3
:10095A00202055202020202043D12020202020564E
:10096A0020202020202072706DD1202020202057A6
:04097A000108000070
:00000001FF
