:100000001DC037C036C035C034C0B4C132C031C0E5
:10001000D5C0BEC02EC02DC02CC02AC22AC029C047
:1000200028C027C026C025C024C023C023C083C049
:1000300020C01FC01EC01DC01CC01BC011241FBE7D
:10004000CFEFD1E0DEBFCDBF11E0A0E0B1E0E6ED43
:10005000FAE002C005900D92A230B107D9F721E075
:10006000A2E0B1E001C01D92AE34B207E1F7F6D3D1
:1000700030C5C6CF1F920F920FB60F9211242F9347
:100080003F938F939F93EF93FF9380918000909184
:10009000860090FF26C09FEE980F9330F8F41092E0
:1000A0008600809346018331A9F48BE0809302019E
:1000B00085E291E0909301018093000112BE84E0FB
:1000C00083BF8CB786BF88B7826088BF89B78260DC
:1000D00089BF26C081E080934D0122C01092460165
:1000E0001FC0909146019331D9F4E0910001F09145
:1000F00001019F012F5F3F4F3093010120930001C9
:10010000808380910201815080930201811108C097
:1001100081E08093490119BE82E083BF8EEF86BFE4
:10012000FF91EF919F918F913F912F910F900FBE73
:100130000F901F9018951F920F920FB60F921124D7
:100140008F939F93EF93FF9380914701815080930A
:100150004701882371F0E0913B01F0913C01CF0110
:10016000019690933C0180933B01808180938000B5
:1001700006C0DD9881E08093860010924601FF91D1
:10018000EF919F918F910F900FBE0F901F90189538
:100190001F920F920FB60F9211248F9319BE82E017
:1001A00083BF8EEF86BF81E0809386001092460168
:1001B0008F910F900FBE0F901F9018951F920F9266
:1001C0000FB60F9211244F935F936F937F938F938A
:1001D0009F93AF93BF93EF93FF93809145018F5F00
:1001E00080934501883010F01092450180914501BF
:1001F000833041F128F4882351F08230A9F055C0B2
:10020000863089F18730F1F0843001F14EC0DE9AFA
:100210001092480110923D0110923E0110923F0150
:10022000109240017D9A41C07D98809148018230B2
:1002300028F4109205011092040137C081E08093E8
:100240004C0133C081E080934A012FC0DE981092A8
:10025000480110923D0110923E0110923F01109210
:1002600040017D9A22C07D9880914801823028F417
:10027000109207011092060103C081E080934C01A7
:100280008091410190914201880F991F880F991F19
:10029000880F991F64E270E09BD37093090160930B
:1002A000080110924201109241012E9A8091300172
:1002B0008E3858F590E0A0E0B0E0AC01BD01440FED
:1002C000551F661F771F440F551F661F771F440F6A
:1002D000551F661F771F480F591F6A1F7B1F440F4A
:1002E000551F661F771F440F551F661F771F440F4A
:1002F000551F661F771F840F951FA61FB71F880FF6
:10030000991FAA1FBB1F892F02C0809114019091D1
:10031000C400891758F4E4ECF0E0808181508083B8
:1003200080818E3088F41092C4000EC09091C40079
:10033000981750F4E4ECF0E090819F5F90839081F7
:100340009E3010F48093C4008091C0009091C4004E
:10035000891B8093C200FF91EF91BF91AF919F9154
:100360008F917F916F915F914F910F900FBE0F9082
:100370001F9018951F920F920FB60F9211240F9392
:100380001F932F933F934F935F936F937F938F931D
:100390009F93AF93BF938091480191E0980F909302
:1003A0004801882309F445C024B535B5809143013F
:1003B000909144012817390700F584B595B520912F
:1003C0004301309144010197821B930B40913D0101
:1003D00050913E0160913F01709140018A019B0163
:1003E000080F191F211D311D00933D0110933E017F
:1003F00020933F01309340011CC024B535B5809156
:10040000430190914401281B390B80913D0190914B
:100410003E01A0913F01B0914001820F931FA11DA9
:10042000B11D80933D0190933E01A0933F01B09395
:10043000400180914801883020F081E080934C0198
:100440007D9884B595B59093440180934301BF9105
:10045000AF919F918F917F916F915F914F913F915C
:100460002F911F910F910F900FBE0F901F90189515
:100470001F920F920FB60F9211242F933F938F93D9
:100480009F9326B137B18091410190914201820F33
:10049000931F90934201809341019F918F913F91CF
:1004A0002F910F900FBE0F901F901895615009F17A
:1004B000E82FF92F80E090E021919227092E0294F5
:1004C000202D2F702927392F3025330F307E2327F9
:1004D000302D3927307F3695092E000C331F969525
:1004E000969596959F7193279827822F615021F7B3
:1004F000089580E090E00895BA9A83E397E0019729
:10050000F1F7BA9812BE88B7826088BFB29B05C067
:1005100088B7FCCF86B388B7FDCF12BEFBCF2F9232
:100520003F924F925F926F927F928F929F92AF9283
:10053000BF92CF92DF92EF92FF920F931F93CF93D0
:10054000DF93CDB7DEB728970FB6F894DEBF0FBEA6
:10055000CDBF0091350110913601E3E0F1E0238435
:10056000348485859685281A390A201A310AA09084
:100570003101B09032018781908521853285821BBF
:10058000930B7C01EA18FB088090370190903801AA
:10059000C401990CAA0BBB0B89839A83AB83BC83E0
:1005A000C101032C000CAA0BBB0B880F991FAA1FBB
:1005B000BB1F880F991FAA1FBB1F880F991FAA1F57
:1005C000BB1F880F991FAA1FBB1F880F991FAA1F47
:1005D000BB1F880F991FAA1FBB1FBC01CD01660F4F
:1005E000771F881F991F29813A814B815C8126D210
:1005F0002D833E834F8358874090330150903401C0
:10060000052C000C66087708C7010F2C000CAA0BFC
:10061000BB0B880F991FAA1FBB1F880F991FAA1F0A
:10062000BB1F880F991FAA1FBB1F880F991FAA1FE6
:10063000BB1F880F991FAA1FBB1F880F991FAA1FD6
:10064000BB1FBC01CD01660F771F881F991FA30137
:100650009201F4D1CD80DE80C216D3060CF469017C
:100660009EE0C90ED11CA09103012A2F30E03E83E9
:100670002D832C153D054CF4C6018F38910514F0DF
:100680008EE890E08093030177C015950795159546
:10069000079515950795B101601B710BCB01770F7D
:1006A000AA0BBB0B880F991FAA1FBB1F880F991F8E
:1006B000AA1FBB1F880F991FAA1FBB1F880F991F56
:1006C000AA1FBB1F880F991FAA1FBB1F880F991F46
:1006D000AA1FBB1FBC01CD01660F771F881F991F82
:1006E00029813A814B815C81A9D129833A834B834B
:1006F0005C83C50195958795959587959595879583
:10070000B701681B790BCB01770FAA0BBB0B880FC6
:10071000991FAA1FBB1F880F991FAA1FBB1F880FF5
:10072000991FAA1FBB1F880F991FAA1FBB1F880FE5
:10073000991FAA1FBB1F880F991FAA1FBB1FBC01AF
:10074000CD01660F771F881F991FA301920176D1F3
:10075000C980DA80C216D3060CF469018EE0C80E97
:10076000D11CC601AD81BE81CA16DB062CF40F97E1
:100770000CF4C12CC092030128960FB6F894DEBF8A
:100780000FBECDBFDF91CF911F910F91FF90EF90E2
:10079000DF90CF90BF90AF909F908F907F906F90A1
:1007A0005F904F903F902F900895CF93DF93F894F0
:1007B0008AE78ABB82E090E0909382008093810078
:1007C0008CEB809385008EE28093840081E080939F
:1007D000860092E090BF93BF9EEF96BF99E39CBFC7
:1007E00092EC9EBD8FB922E930E03093C100209396
:1007F000C0001092C5001092C4003093C300209333
:10080000C20092EB9093CA0099E19093C900E7E689
:10081000F0E09081906A9083E6E6F0E090819C6041
:10082000908390E298B99DE895B98093600080ED3F
:10083000809370004BE050E060E070E080E391E076
:1008400019D1C0E3D1E08FEF888369E0CE012EDEBD
:100850009A8789877894DF91CF910895A6DFC0E8C1
:10086000D0E06894FF24F4F80F2EFAE0EF2EF02D7C
:1008700000E311E080914D018823B9F1DD9A82E017
:100880008A95F1F700C080914601823139F4E092F7
:10089000470110933C0100933B0119C06FE083E0D6
:1008A00091E004DE909313018093120181E1E3E073
:1008B000F1E0A4E1B1E001900D928A95E1F7F092A8
:1008C000470184E191E090933C0180933B01E091EA
:1008D0003B01F0913C01CF01019690933C01809344
:1008E0003B018081888310924D01809149018823CA
:1008F000D9F069E085E291E0D9DD20912E013091B7
:100900002F018217930771F48BE0E5E2F1E0D80143
:1009100001900D928A95E1F74BE050E060E070E0C5
:10092000C801B7D01092490180914C01882331F160
:100930006091480170E061507109072E000C880B2E
:10094000990B20E030EF42ED50E029D020913D019D
:1009500030913E0140913F01509140014DD0809136
:100960004501843028F4309305012093040104C02C
:10097000309307012093060110924C0180914B01A6
:10098000882319F0CCDD10924B0180914A01882315
:1009900009F470CF8091460181116CCFADDDEE2757
:1009A000FF27AA27BB2708C0A20FB31FE41FF51F0C
:1009B000220F331F441F551F96958795779567958E
:1009C00098F37040A9F7009799F7BD01CF010895FA
:1009D000AA1BBB1B51E107C0AA1FBB1FA617B70765
:1009E00010F0A61BB70B881F991F5A95A9F7809581
:1009F0009095BC01CD010895A1E21A2EAA1BBB1B44
:100A0000FD010DC0AA1FBB1FEE1FFF1FA217B307DA
:100A1000E407F50720F0A21BB30BE40BF50B661FF0
:100A2000771F881F991F1A9469F7609570958095B4
:100A300090959B01AC01BD01CF010895052E97FB58
:100A400016F400940FD057FD05D0D6DF07FC02D076
:100A500046F408C050954095309521953F4F4F4F33
:100A60005F4F089590958095709561957F4F8F4F5A
:100A70009F4F0895DC01862FE82FE199FECF1FBA22
:100A800005C0EEBBE09AE3950DB20D924150C8F758
:100A90000895DC01A40FB51F4150504038F0862F57
:100AA000840F2E9105D041505040D8F70895262F3D
:100AB000E199FECF1FBA8EBBE09A81500DB20216AB
:100AC00039F01CBA2DBB0FB6F894E29AE19A0FBE2A
:060AD0000895F894FFCF29
:020AD6002501F8
:00000001FF
