:100000002DC047C046C072C244C014C342C041C0E4
:1000100056C13FC040C13DC03CC087C33AC039C093
:1000200038C037C036C035C034C033C059C031C005
:1000300004C12FC02EC02DC02CC02BC07DC1EFC16C
:10004000A1C186C193C1EBC19DC1E9C175C1E7C121
:1000500099C1E5C18BC1E3C195C17AC111241FBE0D
:10006000CFEFD1E0DEBFCDBF11E0A0E0B1E0EEE028
:10007000F9E002C005900D92A230B107D9F721E056
:10008000A2E0B1E001C01D92A035B207E1F7ADD307
:100090003CC4B6CF61500AF1E82FF92F8FEF9FEFE4
:1000A00021919227092E0294202D2F702927392F74
:1000B0003025330F307E2327302D3927307F36957A
:1000C000092E000C331F9695969596959F71932750
:1000D0009827822F615022F708958FEF9FEF0895A0
:1000E0001F920F920FB60F9211242F933F934F93AD
:1000F0005F936F937F938F939F93AF93BF93EF9390
:10010000FF93809180009091860090FF57C09FEEF2
:10011000980F933008F04FC01092860080934D01E5
:10012000833179F48BE0809302018AE291E090932D
:1001300001018093000112BE84E083BF88BF89BFA4
:100140006BC0DD9A80E38A95F1F780914D01823191
:1001500051F48AE080934E0185E391E09093410150
:10016000809340011AC06FE088E091E093DF9093A4
:1001700018018093170181E1E8E0F1E0A9E1B1E025
:1001800001900D928A95E1F780E180934E0189E11B
:1001900091E09093410180934001E0914001F09102
:1001A0004101CF01019690934101809340018081EC
:1001B0008093800031C010924D012EC090914D016E
:1001C000933151F5E0910001F09101019F012F5F02
:1001D0003F4F309301012093000180838091020101
:1001E000815080930201811117C019BE82E083BF44
:1001F00069E08AE291E04EDF2091330130913401D1
:100200008217930749F48BE0EAE2F1E0A5E3B1E05D
:1002100001900D928A95E1F7FF91EF91BF91AF9117
:100220009F918F917F916F915F914F913F912F910E
:100230000F900FBE0F901F9018951F920F920FB640
:100240000F9211248F939F93EF93FF9380914E0110
:100250009FEF980F90934E01882371F0E091400139
:10026000F0914101CF0101969093410180934001AB
:1002700080818093800006C0DD9881E080938600B5
:1002800010924D01FF91EF919F918F910F900FBEB2
:100290000F901F9018951F920F920FB60F92112476
:1002A0008F9319BE82E083BF81E080938600109215
:1002B0004D018F910F900FBE0F901F9018951F92B8
:1002C0000F920FB60F9211242F933F934F935F938A
:1002D0006F937F938F939F93AF93BF93EF93FF930E
:1002E00080914C0191E0980F90934C018F30C0F0B9
:1002F00010924C018091460190914701089690938D
:100300004701809346018091460190914701892BD6
:1003100039F44BE050E060E070E085E391E0D5D245
:10032000E0914C018E2F90E08031910508F077C06C
:10033000FC01E25EFF4F099410924F0110924201BE
:100340001092430110924401109245017D9A67C0BA
:10035000C298BA9A8FEF95E00197F1F70000BA982A
:1003600084E080BD80E28ABF8BBF59C010924F01EC
:1003700010924201109243011092440110924501E3
:100380007D9A4DC07D9880914C01823021F0809102
:100390004C018A3029F410920A011092090117C009
:1003A000E8E0F1E0148213828091480190914901C4
:1003B000880F991F880F991F880F991F61E270E0BD
:1003C0003FD2768365831092490110924801809153
:1003D0004F01823020F160914F0170E0615071094E
:1003E000072E000C880B990B20E030EF42ED50E017
:1003F0000ED220914201309143014091440150912D
:10040000450132D280914C018A3028F430930A01A0
:100410002093090104C030930C0120930B012E9A04
:10042000809135018E3858F590E0A0E0B0E0AC0145
:10043000BD01440F551F661F771F440F551F661FD0
:10044000771F440F551F661F771F480F591F6A1FDC
:100450007B1F440F551F661F771F440F551F661FD4
:10046000771F440F551F661F771F840F951FA61F08
:10047000B71F880F991FAA1FBB1F892F02C0809129
:1004800019019091C400891758F4E4ECF0E08081E0
:100490008150808380818E3088F41092C4000EC019
:1004A0009091C400981750F4E4ECF0E090819F5FC5
:1004B000908390819E3010F48093C4008091C0009E
:1004C0009091C400891B8093C200FF91EF91BF916E
:1004D000AF919F918F917F916F915F914F913F91DC
:1004E0002F910F900FBE0F901F9018951F920F9293
:1004F0000FB60F9211242F933F934F935F936F93F7
:100500007F938F939F93AF93BF93EF93FF931BBE04
:1005100082E68A95F1F7000081E080930801B29BA2
:1005200078C0A2E6AA95F1F70000E3E0F1E048E028
:1005300051E061E070E027E030E090E086E0B299C1
:1005400007C0ACE0AA95F1F700008150C1F761C087
:1005500085E28A95F1F7B29B08C0DB01022E02C04A
:10056000AA0FBB1F0A94E2F79A2B86E0B29B07C042
:10057000ACE0AA95F1F700008150C1F74AC02150C4
:100580003109E0F691934E175F07A9F682E0809358
:100590000801E3E0F1E090818181890F9281890F68
:1005A0009381890F9481891334C0809105019091C2
:1005B0000601992344F49F77919581959109909331
:1005C00006018093050180914C01833081F4E8E0BD
:1005D000F1E0A3E0B1E08D919C9111979087878322
:1005E00012968D919C911397948783870FC0E8E0B2
:1005F000F1E0A3E0B1E08D919C9111979287818702
:1006000012968D919C9113979687858783E08093AE
:100610000801FF91EF91BF91AF919F918F917F91D1
:100620006F915F914F913F912F910F900FBE0F905F
:100630001F9018951F920F920FB60F9211240F93CF
:100640001F932F933F934F935F936F937F938F935A
:100650009F93AF93BF9380914F0191E0980F909338
:100660004F01882309F445C024B535B580914A016E
:1006700090914B012817390700F584B595B5209165
:100680004A0130914B010197821B930B409142012B
:100690005091430160914401709145018A019B0191
:1006A000080F191F211D311D0093420110934301B2
:1006B00020934401309345011CC024B535B5809189
:1006C0004A0190914B01281B390B80914201909176
:1006D0004301A0914401B0914501820F931FA11DD8
:1006E000B11D8093420190934301A0934401B093C4
:1006F000450180914F01883008F07D9884B595B50B
:1007000090934B0180934A01BF91AF919F918F913C
:100710007F916F915F914F913F912F911F910F9119
:100720000F900FBE0F901F9018951F920F920FB64B
:100730000F9211242F933F938F939F9326B137B13C
:100740008091480190914901820F931F9093490134
:10075000809348019F918F913F912F910F900FBEF1
:100760000F901F901895F8948AE78ABB82E090E07A
:1007700090938200809381008CED809385008EE0C1
:100780008093840081E08093860092E093BF99E398
:100790009CBF92EC9EBD8FB922E930E03093C1003E
:1007A0002093C0001092C5001092C4003093C30083
:1007B0002093C20092EB9093CA0099E19093C900F4
:1007C000E7E6F0E09081906A9083E6E6F0E09081C1
:1007D0009C60908390E298B99DE895B98093600001
:1007E00080ED8093700078940895BDDF4BE050E079
:1007F00060E070E085E391E059D0C5E3D1E08FEF90
:10080000888369E0CE0146DC9A878987FFCFEE278F
:10081000FF27AA27BB2708C0A20FB31FE41FF51F9D
:10082000220F331F441F551F96958795779567951F
:1008300098F37040A9F7009799F7BD01CF0108958B
:10084000AA1BBB1B51E107C0AA1FBB1FA617B707F6
:1008500010F0A61BB70B881F991F5A95A9F7809512
:100860009095BC01CD010895A1E21A2EAA1BBB1BD5
:10087000FD010DC0AA1FBB1FEE1FFF1FA217B3076C
:10088000E407F50720F0A21BB30BE40BF50B661F82
:10089000771F881F991F1A9469F760957095809546
:1008A00090959B01AC01BD01CF010895DC01862F1D
:1008B000E82FE199FECF1FBA05C0EEBBE09AE395A1
:1008C0000DB20D924150C8F70895DC01A40FB51F79
:1008D0004150504038F0862F840F2E9105D0415062
:1008E0005040D8F70895262FE199FECF1FBA8EBB4E
:1008F000E09A81500DB2021639F01CBA2DBB0FB62A
:0E090000F894E29AE19A0FBE0895F894FFCFA2
:02090E002A01BC
:00000001FF
