:100000001DC02CC02BC0A1C329C0E2C327C026C07D
:100010006FC224C077C38DC321C013C41FC01EC0CC
:100020001DC01CC01BC01AC019C018C072C116C0A8
:1000300031C214C013C012C011C010C011241FBEA1
:10004000CFEFD1E0DEBFCDBF21E0A0E0B1E001C045
:100050001D92A934B207E1F750D4FBC4D1CF61504F
:100060000AF1E82FF92F8FEF9FEF21919227092EA8
:100070000294202D2F702927392F3025330F307E01
:100080002327302D3927307F3695092E000C331F5A
:100090009695969596959F7193279827822F6150F4
:1000A00022F708958FEF9FEF0895CF92DF92EF929E
:1000B000FF920F931F93CF93DF938B01092E000CB8
:1000C000AA0BBB0B880F991FAA1FBB1F880F991F74
:1000D000AA1FBB1FAC01BD01440F551F661F771F30
:1000E000440F551F661F771F840F951FA61FB71F4C
:1000F000AC01BD01440F551F661F771F440F551FEC
:10010000661F771F6C017D01C40ED51EE61EF71E0B
:10011000C701B601CBE2D1E02F813885032E000C58
:10012000440B550B4BD469017A01A801110F660BE2
:10013000770B440F551F661F771F440F551F661F0F
:10014000771FDB01CA01880F991FAA1FBB1F880FE9
:10015000991FAA1FBB1F480F591F6A1F7B1FDB0176
:10016000CA01880F991FAA1FBB1F880F991FAA1FBA
:10017000BB1F8A019B01080F191F2A1F3B1FC901C2
:10018000B8012B813C81032E000C440B550B16D477
:10019000C601C216D3060CF4C9018396DF91CF9134
:1001A0001F910F91FF90EF90DF90CF900895CF9225
:1001B000DF92EF92FF920F931F93CF93DF93809183
:1001C0002B018F3F09F045C0ABE2B1E01596ED90F1
:1001D000FC901697EAE1F1E0038514858585968504
:1001E000081B190B0E191F091196CD90DC90129760
:1001F000C781D08581859285C81BD90BCC19DD09B3
:10020000BE01C80152DF90914201981730F488383E
:1002100008F087E8809342011CC0D594C794D59418
:10022000C794D594C794BE016C197D09F594E794E1
:10023000F594E794F594E794C8018E199F0935DF8A
:1002400090914201891728F4843208F480E0809369
:100250004201DF91CF911F910F91FF90EF90DF90BE
:10026000CF900895CF92DF92EF92FF928091470155
:100270009FEF980F909347018823E1F04091380158
:100280005091390160913A0170913B0141505109FF
:100290006F4F7F4F809147019FEF980F90934701D9
:1002A0008111F4CF409338015093390160933A01A2
:1002B00070933B018091400190914101C0903801C1
:1002C000D0903901E0903A01F0903B01C81AD90A68
:1002D000E108F108C0923801D0923901E0923A0168
:1002E000F0923B016091480170E061507109072E66
:1002F000000C880B990B20E030EC4BE453E00FD35B
:10030000A701960139D3C901FF90EF90DF90CF90FC
:1003100008951F920F920FB60F9211242F933F93BF
:100320004F935F936F937F938F939F93AF93BF93FD
:10033000EF93FF93809180009091860090FF54C0CE
:100340009FEE980F933008F04CC010928600809377
:100350004501833161F48BE08093030184E091E0F7
:1003600090930201809301011092440182C0DD9AB2
:1003700080E68A95F1F780914501823151F48AE057
:10038000809346018BE291E0909337018093360190
:100390001AC084E091E090933701809336016FE0BA
:1003A0008AE191E05CDE90932A018093290181E14A
:1003B000EAE1F1E0A4E0B1E001900D928A95E1F765
:1003C00080E180934601E0913601F0913701CF0141
:1003D000019690933701809336018081809380004D
:1003E00048C01092450145C090914501933109F0F4
:1003F00040C0E0910101F09102019F012F5F3F4F4A
:100400003093020120930101808380910301815088
:100410008093030181112DC01092450169E084E0B1
:1004200091E01DDE20910D0130910E01821793079E
:10043000E9F48BE0E4E0F1E0ABE2B1E001900D9291
:100440008A95E1F780912B018F3F81F080934201E3
:1004500080914201833218F41092420107C08091CA
:100460004201883818F087E88093420181E0809348
:100470008600FF91EF91BF91AF919F918F917F91F6
:100480006F915F914F913F912F910F900FBE0F9001
:100490001F9018951F920F920FB60F9211248F93F1
:1004A0009F93EF93FF93809146019FEF980F909356
:1004B0004601882371F0E0913601F0913701CF01B8
:1004C000019690933701809336018081809380005C
:1004D00006C0DD9881E08093860010924501FF916F
:1004E000EF919F918F910F900FBE0F901F901895D5
:1004F0001F920F920FB60F9211241F932F933F93C9
:100500004F935F936F937F938F939F93AF93BF931B
:10051000CF93DF93EF93FF93C0913C01D0913D01C6
:10052000CE01019690933D0180933C011C2F1F73D7
:1005300080913C0190913D01892B39F44BE050E0D2
:1005400060E070E08BE291E064D21C3219F0143369
:1005500009F049C0E5E1F1E090818181890F928144
:10056000890F9381890F9481891330C0809117017D
:1005700090911801992344F49F7791958195910961
:1005800090931801809317011C3281F4EAE1F1E0A5
:10059000A5E1B1E08D919C91119790878783129688
:1005A0008D919C9113979487838710C0EAE1F1E0C5
:1005B000A5E1B1E08D919C91119792878187129668
:1005C0008D919C91139796878587F1DDC298BA9A91
:1005D00084E083BF12BE90E39CBF95E098BF89BFC3
:1005E0008FEF809343018C2F8F7089F480914801A5
:1005F000823010F037DE02C080E090E090931C0162
:1006000080931B01DE9A109248017D9A25C08830A4
:1006100019F580914801823010F024DE02C080E09C
:1006200090E0EAE1F1E094838383DE981092480140
:100630007D9A80913E0190913F01880F991F880F0C
:10064000991F880F991F61E270E082D176836583DC
:1006500010923F0110923E0180914501833161F477
:10066000809144018F5F80934401833028F081E0C2
:100670008093860010924501C0FD2E9AC370C3304E
:1006800069F59091C40080914201891758F4E4EC17
:10069000F0E080818150808380818332A0F41092C9
:1006A000C40011C09091C40080914201981758F481
:1006B000E4ECF0E080818F5F80838081833218F4E6
:1006C00083E28093C400E4ECF0E0808180931A011F
:1006D0008091C0009081891B8093C200FF91EF91AF
:1006E000DF91CF91BF91AF919F918F917F916F914A
:1006F0005F914F913F912F911F910F900FBE0F90DF
:100700001F9018951F920F920FB60F9211248F937E
:10071000BA9882E083BF12BE81E089BF84E080BDC9
:1007200080E28ABF8BBF8F910F900FBE0F901F90FA
:1007300018951F920F920FB60F92112419BE1BBE6F
:100740000F900FBE0F901F9018951F920F920FB62B
:100750000F9211248F939F93EF93FF9392B712BE42
:10076000B2992DC0809143018F5F809343018091A6
:1007700043018832F0F480910001880F9F3218F411
:100780008093000103C08160809300018091430148
:100790008770873071F4E0914301F0E0F595E795BB
:1007A000F595E795F595E795EB5EFE4F8091000195
:1007B000808380914301873211F419BE1BBEFF91E3
:1007C000EF919F918F910F900FBE0F901F901895F2
:1007D0001F920F920FB60F9211248F939F93AF9396
:1007E000BF938091480191E0980F90934801811147
:1007F00007C084B595B590934101809340010CC02A
:1008000084B595B5A0E0B0E08093380190933901AC
:10081000A0933A01B0933B0180914801883008F0E1
:100820007D9880913C0190913D01877080934701B4
:10083000BF91AF919F918F910F900FBE0F901F901E
:1008400018951F920F920FB60F9211242F933F937A
:100850008F939F9326B137B180913E0190913F01D4
:10086000820F931F90933F0180933E019F918F9140
:100870003F912F910F900FBE0F901F901895F894F5
:100880008AE78ABB85E090E09093820080938100A4
:100890008CED809385008EE08093840081E08093CE
:1008A000860092EC9EBD8FB923E930E03093C10001
:1008B0002093C0001092C5001092C4003093C30072
:1008C0002093C20090EB9093CA0091E19093C900ED
:1008D000E7E6F0E09081906A9083E6E6F0E09081B0
:1008E0009C60908390E298B99DE895B980936000F0
:1008F00080ED8093700078940895C1DF4BE050E064
:1009000060E070E08BE291E075D0CBE2D1E08FEF58
:10091000888369E0CE01A3DB9A878987FFCFEE2722
:10092000FF27AA27BB2708C0A20FB31FE41FF51F8C
:10093000220F331F441F551F96958795779567950E
:1009400098F37040A9F7009799F7BD01CF0108957A
:10095000AA1BBB1B51E107C0AA1FBB1FA617B707E5
:1009600010F0A61BB70B881F991F5A95A9F7809501
:100970009095BC01CD010895A1E21A2EAA1BBB1BC4
:10098000FD010DC0AA1FBB1FEE1FFF1FA217B3075B
:10099000E407F50720F0A21BB30BE40BF50B661F71
:1009A000771F881F991F1A9469F760957095809535
:1009B00090959B01AC01BD01CF010895052E97FBD9
:1009C00016F400940FD057FD05D0D6DF07FC02D0F7
:1009D00046F408C050954095309521953F4F4F4FB4
:1009E0005F4F089590958095709561957F4F8F4FDB
:1009F0009F4F0895DC01862FE82FE199FECF1FBAA3
:100A000005C0EEBBE09AE3950DB20D924150C8F7D8
:100A10000895DC01A40FB51F4150504038F0862FD7
:100A2000840F2E9105D041505040D8F70895262FBD
:100A3000E199FECF1FBA8EBBE09A81500DB202162B
:100A400039F01CBA2DBB0FB6F894E29AE19A0FBEAA
:060A50000895F894FFCFA9
:00000001FF
