S0170000416972436F6E646974696F6E696E672E737265630C
S11300002DC047C046C045C044C01DC242C041C007
S113001045C13FC02FC13DC03CC093C23AC039C0A6
S113002038C037C036C035C034C033C059C031C001
S1130030F3C02FC02EC02DC02CC02BC053C19EC1F5
S11300405DC16AC16DC19AC177C198C14BC196C1E6
S113005055C194C165C192C16FC15EC111241FBE57
S1130060CFEFD1E0DEBFCDBF11E0A0E0B1E0E4EE20
S1130070F8E002C005900D92A230B107D9F721E053
S1130080A2E0B1E001C01D92A235B207E1F74FD35F
S113009027C4B6CF61500AF1E82FF92F8FEF9FEFF5
S11300A021919227092E0294202D2F702927392F70
S11300B03025330F307E2327302D3927307F369576
S11300C0092E000C331F9695969596959F7193274C
S11300D09827822F615022F708958FEF9FEF08959C
S11300E01F920F920FB60F9211242F933F934F93A9
S11300F05F936F937F938F939F93AF93BF93EF938C
S1130100FF93809180009091860090FF57C09FEEEE
S1130110980F933008F04FC01092860080934B01E3
S1130120833179F48BE0809302018AE291E0909329
S113013001018093000112BE84E083BF88BF89BFA0
S11301405AC0DD9A80E38A95F1F780914B018231A0
S113015051F48AE080934C0185E391E0909341014E
S1130160809340011AC06FE088E091E093DF9093A0
S113017018018093170181E1E8E0F1E0A9E1B1E021
S113018001900D928A95E1F780E180934C0189E119
S113019091E09093410180934001E0914001F091FE
S11301A04101CF01019690934101809340018081E8
S11301B08093800020C010924B011DC090914B0190
S11301C09331C9F4E0910001F09101019F012F5F87
S11301D03F4F3093010120930001808380910201FD
S11301E0815080930201811106C081E080934E0109
S11301F019BE82E083BFFF91EF91BF91AF919F91B0
S11302008F917F916F915F914F913F912F910F90BB
S11302100FBE0F901F9018951F920F920FB60F925A
S113022011248F939F93EF93FF9380914C019FEF41
S1130230980F90934C01882371F0E0914001F09164
S11302404101CF0101969093410180934001808147
S11302508093800006C0DD9881E080938600109230
S11302604B01FF91EF919F918F910F900FBE0F90D3
S11302701F9018951F920F920FB60F9211248F930F
S113028019BE82E083BF81E08093860010924B0107
S11302908F910F900FBE0F901F9018951F920F9281
S11302A00FB60F9211244F935F936F937F938F93A5
S11302B09F93AF93BF93EF93FF9380914A018F5F16
S11302C080934A01803110F010924A01E0914A0172
S11302D08E2F90E08031910508F050C0FC01E25E61
S11302E0FF4F099410924D01109242011092430164
S11302F010924401109245017D9A40C07D988091EE
S11303004D01823028F410920A011092090136C07E
S113031081E08093510132C081E080934F012EC06F
S113032010924D0110924201109243011092440127
S1130330109245017D9A22C07D9880914D018230B2
S113034028F410920C0110920B0103C081E08093F9
S113035051018091460190914701880F991F880FA0
S1130360991F880F991F61E270E055D270930E01B6
S113037060930D0110924701109246012E9A8091CC
S113038035018E3858F590E0A0E0B0E0AC01BD0135
S1130390440F551F661F771F440F551F661F771F95
S11303A0440F551F661F771F480F591F6A1F7B1F75
S11303B0440F551F661F771F440F551F661F771F75
S11303C0440F551F661F771F840F951FA61FB71F65
S11303D0880F991FAA1FBB1F892F02C08091190182
S11303E09091C400891758F4E4ECF0E080818150C6
S11303F0808380818E3088F41092C4000EC0909166
S1130400C400981750F4E4ECF0E090819F5F90836F
S113041090819E3010F48093C4008091C00090912C
S1130420C400891B8093C200FF91EF91BF91AF91EB
S11304309F918F917F916F915F914F910F900FBE1C
S11304400F901F9018951F920F920FB60F921124C0
S11304500F931F932F933F934F935F936F937F93C8
S11304608F939F93AF93BF9380914D0191E0980F29
S113047090934D01882309F445C024B535B5809186
S11304804801909149012817390700F584B595B5BD
S113049020914801309149010197821B930B4091AF
S11304A042015091430160914401709145018A01D8
S11304B09B01080F191F211D311D00934201109348
S11304C0430120934401309345011CC024B535B544
S11304D08091480190914901281B390B8091420178
S11304E090914301A0914401B0914501820F931F63
S11304F0A11DB11D8093420190934301A093440137
S1130500B093450180914D01883020F081E08093C3
S113051051017D9884B595B5909349018093480124
S1130520BF91AF919F918F917F916F915F914F9107
S11305303F912F911F910F910F900FBE0F901F901D
S113054018951F920F920FB60F9211242F933F9379
S11305508F939F9326B137B18091460190914701C3
S1130560820F931F90934701809346019F918F912F
S11305703F912F910F900FBE0F901F901895BA9A2C
S113058083E083BF12BE81E088BF83B780930F01ED
S113059008B600FEFDCF88B780931001C298BA98C0
S11305A081E088BFB29B03C008B600FEFBCF82B7D0
S11305B08D5F8093110182E083BF4FEF5FEF25E0F1
S11305C0E2E1F1E012BE86B308B600FEFCCF82B7CA
S11305D08D5F808312BEB29B03C008B600FEFBCFC2
S11305E0213011F4319604C082B78D5F8183329635
S11305F098B7892F817090FD40C04423ACF0BA01B4
S1130600759567957595679575956795DB01AD5FEC
S1130610BE4F9C91990F9C9332B7373128F0DB0180
S1130620AD5FBE4F91609C9322504F5F5F4F233B61
S113063049F6E3E0F1E020819181290F9281290FAD
S11306409381920F248192131AC020910501309155
S11306500601332344F43F773195219531093093D2
S113066006012093050190914A01933019F091E01D
S11306709093500110924F01089581E0089582E013
S11306800895CF93DF93F8948AE78ABB82E090E0E1
S113069090938200809381008CED809385008EE09E
S11306A08093840081E08093860092E093BF99E375
S11306B09CBF92EC9EBD8FB922E930E03093C1001B
S11306C02093C0001092C5001092C4003093C30060
S11306D02093C20092EB9093CA0099E19093C900D1
S11306E0E7E6F0E09081906A9083E6E6F0E090819E
S11306F09C60908390E298B99DE895B980936000DE
S113070080ED809370004BE050E060E070E085E3A2
S113071091E0B7D0C5E3D1E08FEF888369E0CE01E3
S1130720B9DC9A8789877894DF91CF910895A9DFFE
S1130730C8E0D1E080914E018823E9F069E08AE2C3
S113074091E0A8DC209133013091340182179307A2
S113075081F48BE0EAE2F1E0A5E3B1E001900D92CF
S11307608A95E1F74BE050E060E070E085E391E0CA
S113077097D010924E0180915101882311F160911C
S11307804D0170E061507109072E000C880B990B24
S113079020E030EF42ED50E025D02091420130912D
S11307A04301409144015091450149D080914A014F
S11307B0843018F43A83298302C03C832B8310923B
S11307C051018091500181111092500180914F018B
S11307D0882309F4AFCF80914B018111ABCFCFDED9
S11307E08883A8CFEE27FF27AA27BB2708C0A20F1C
S11307F0B31FE41FF51F220F331F441F551F969587
S113080087957795679598F37040A9F7009799F7BE
S1130810BD01CF010895AA1BBB1B51E107C0AA1F4C
S1130820BB1FA617B70710F0A61BB70B881F991F8D
S11308305A95A9F780959095BC01CD010895A1E240
S11308401A2EAA1BBB1BFD010DC0AA1FBB1FEE1F46
S1130850FF1FA217B307E407F50720F0A21BB30B91
S1130860E40BF50B661F771F881F991F1A9469F70D
S113087060957095809590959B01AC01BD01CF0169
S11308800895DC01862FE82FE199FECF1FBA05C039
S1130890EEBBE09AE3950DB20D924150C8F708956E
S11308A0DC01A40FB51F4150504038F0862F840F4F
S11308B02E9105D041505040D8F70895262FE19944
S11308C0FECF1FBA8EBBE09A81500DB2021639F0EA
S11308D01CBA2DBB0FB6F894E29AE19A0FBE0895A4
S10708E0F894FFCFB6
S10508E42A01E3
S9030000FC
