S0170000416972436F6E646974696F6E696E672E737265630C
S11300001DC037C036C0C2C234C003C332C031C001
S11300104BC12FC093C2A9C22CC076C32AC029C029
S113002028C027C026C025C024C023C062C021C068
S11300300DC11FC01EC01DC01CC01BC011241FBE8B
S1130040CFEFD1E0DEBFCDBF11E0A0E0B1E0E4EE40
S1130050F8E002C005900D92A230B107D9F721E073
S1130060A2E0B1E001C01D92A335B207E1F7A8D325
S113007037C4C6CF61500AF1E82FF92F8FEF9FEFF5
S113008021919227092E0294202D2F702927392F90
S11300903025330F307E2327302D3927307F369596
S11300A0092E000C331F9695969596959F7193276C
S11300B09827822F615022F708958FEF9FEF0895BC
S11300C06091520170E061507109072E000C880B99
S11300D0990B20E030EE45EA51E084D320914401AD
S11300E0309145014091460150914701A8D3C9017F
S11300F008951F920F920FB60F9211242F933F93DE
S11301004F935F936F937F938F939F93AF93BF931B
S1130110EF93FF93809180009091860090FF58C0E8
S11301209FEE980F933008F050C010928600809391
S11301305001833181F48BE0809304018CE291E0DF
S113014090930101809300018091480190914901AD
S113015080934F016AC0DD9A80E68A95F1F7809119
S11301605001823151F48AE08093510187E391E098
S113017090934301809342011AC06FE08AE091E0BA
S113018079DF90931A018093190181E1EAE0F1E0AB
S1130190ABE1B1E001900D928A95E1F780E18093A3
S11301A051018BE191E09093430180934201E091EE
S11301B04201F0914301CF01019690934301809352
S11301C0420180818093800030C0109250012DC084
S11301D090915001933149F5E0910001F0910101B2
S11301E09F012F5F3F4F30930101209300018083D3
S11301F080910401815080930401811116C01092F2
S1130200500169E08CE291E035DF209135013091B5
S113021036018217930749F48BE0ECE2F1E0A7E39F
S1130220B1E001900D928A95E1F7FF91EF91BF91B2
S1130230AF919F918F917F916F915F914F913F917A
S11302402F910F900FBE0F901F9018951F920F9231
S11302500FB60F9211248F939F93EF93FF93809186
S113026051019FEF980F90935101882371F0E09111
S11302704201F0914301CF01019690934301809391
S1130280420180818093800006C0DD9881E08093E4
S1130290860010925001FF91EF919F918F910F90E2
S11302A00FBE0F901F9018951F920F920FB60F92CA
S11302B011242F933F934F935F936F937F938F9367
S11302C09F93AF93BF93CF93DF93EF93FF93C0912B
S11302D04801D0914901CE01019690934901809340
S11302E048018091480190914901892B39F44BE0F0
S11302F050E060E070E087E391E0D2D28C2F877108
S1130300843009F049C0E5E0F1E090818181890FF2
S11303109281890F9381890F9481891759F08AE01A
S113032080930A0185E0A1E1B1E001900D928A95E4
S1130330E1F7DCC08091070190910801992344F40E
S11303409F77919581959109909308018093070176
S11303508C2F8F71843081F4EAE0F1E0A5E0B1E004
S11303608D919C9111979087878312968D919C9182
S1130370139794878387BAC0EAE0F1E0A5E0B1E07F
S11303808D919C9111979287818712968D919C9162
S1130390139796878587AAC08C2F8F70C1F480919C
S11303A05201823010F08CDE02C080E090E0909325
S11303B00C0180930B01109252011092440110928F
S11303C0450110924601109247017D9A2CC0883055
S11303D051F580915201823010F072DE02C080E04B
S11303E090E0EAE0F1E0948383831092520110924A
S11303F044011092450110924601109247017D9AE2
S113040080914A0190914B01880F991F880F991F81
S1130410880F991F61E270E0FED1768365831092A4
S11304204B0110924A0180915001833189F48091EB
S11304304F0190910301981306C081E080938600D8
S1130440109250010AC080914F018093030105C0AE
S113045080914F01815080930301C0FF5CC02E9AAC
S1130460209137012F3F19F490911B011AC080E0AD
S113047090E0822F9C01220F331F820F931F9C0157
S1130480220F331F220F331F220F331F281B390B58
S1130490C901880F991F880F991F880F991F821B04
S11304A0930B3091C400931758F4E4ECF0E080818E
S11304B08150808380818E3088F41092C4000EC0F5
S11304C03091C400391750F4E4ECF0E020812F5F40
S11304D0208320812E3010F49093C4008091C000BA
S11304E09091C400891B8093C20015C0E5E0F1E03F
S11304F010821182128213821482C298BA9A84E002
S113050083BF12BE90E39CBF95E098BF89BF8FEF75
S113051080934E0141CFFF91EF91DF91CF91BF9135
S1130520AF919F918F917F916F915F914F913F9187
S11305302F910F900FBE0F901F9018951F920F923E
S11305400FB60F9211248F93BA9882E083BF12BE24
S113055081E089BF84E080BD80E28ABF8BBF8F9138
S11305600F900FBE0F901F9018951F920F920FB609
S11305700F9211248F9319BE1BBE81E080930A0150
S11305808F910F900FBE0F901F9018951F920F928E
S11305900FB60F9211248F939F93EF93FF9392B70B
S11305A012BEB2992DC080914E018F5F80934E018F
S11305B080914E018832F0F480910201880F9D32BF
S11305C018F48093020103C081608093020180913A
S11305D04E018770873071F4E0914E01F0E0F5959B
S11305E0E795F595E795F595E795EB5FFE4F8091D7
S11305F00201808380914E01873211F419BE1BBE23
S1130600FF91EF919F918F910F900FBE0F901F90CC
S113061018951F920F920FB60F9211240F931F93E8
S11306202F933F934F935F936F937F938F939F93F6
S1130630AF93BF938091520191E0980F9093520130
S1130640882309F445C024B535B580914C019091B7
S11306504D012817390700F584B595B520914C0153
S113066030914D010197821B930B409144015091AD
S1130670450160914601709147018A019B01080F71
S1130680191F211D311D009344011093450120932E
S11306904601309347011CC024B535B580914C0107
S11306A090914D01281B390B809144019091450193
S11306B0A0914601B0914701820F931FA11DB11D66
S11306C08093440190934501A0934601B093470160
S11306D080915201883008F07D9884B595B5909347
S11306E04D0180934C01BF91AF919F918F917F9168
S11306F06F915F914F913F912F911F910F910F90A7
S11307000FBE0F901F9018951F920F920FB60F9265
S113071011242F933F938F939F9326B137B18091E8
S11307204A0190914B01820F931F90934B01809348
S11307304A019F918F913F912F910F900FBE0F907F
S11307401F901895F8948AE78ABB85E090E090930F
S11307508200809381008CED809385008EE08093ED
S1130760840081E08093860092EC9EBD8FB923E9DA
S113077030E03093C1002093C0001092C500109265
S1130780C4003093C3002093C20090EB9093CA003E
S113079091E19093C900E7E6F0E09081906A90833C
S11307A0E6E6F0E090819C60908390E298B99DE841
S11307B095B98093600080ED8093700078940895DB
S11307C0C1DF4BE050E060E070E087E391E059D096
S11307D0C7E3D1E08FEF888369E0CE014BDC9A87D1
S11307E08987FFCFEE27FF27AA27BB2708C0A20FC0
S11307F0B31FE41FF51F220F331F441F551F969587
S113080087957795679598F37040A9F7009799F7BE
S1130810BD01CF010895AA1BBB1B51E107C0AA1F4C
S1130820BB1FA617B70710F0A61BB70B881F991F8D
S11308305A95A9F780959095BC01CD010895A1E240
S11308401A2EAA1BBB1BFD010DC0AA1FBB1FEE1F46
S1130850FF1FA217B307E407F50720F0A21BB30B91
S1130860E40BF50B661F771F881F991F1A9469F70D
S113087060957095809590959B01AC01BD01CF0169
S11308800895DC01862FE82FE199FECF1FBA05C039
S1130890EEBBE09AE3950DB20D924150C8F708956E
S11308A0DC01A40FB51F4150504038F0862F840F4F
S11308B02E9105D041505040D8F70895262FE19944
S11308C0FECF1FBA8EBBE09A81500DB2021639F0EA
S11308D01CBA2DBB0FB6F894E29AE19A0FBE0895A4
S10708E0F894FFCFB6
S10508E42C01E1
S9030000FC
