S0120000436F6E74726F6C6C65722E73726563EE
S11300000C9457000C9474000C9474000C947400B9
S11300100C944E060C9474000C9474000C94060317
S11300200C9474000C9474000C9474000C9474007C
S11300300C9474000C9474000C9474000C9474006C
S11300400C9474000C9474000C9474000C9474005C
S11300500C9474000C9474000C9474000C948E052D
S11300600C9474000C9474000C9474000C9474003C
S11300700C9474000C9474000C9474000C9474002C
S11300800C9474000C9474000C945D040C9474002F
S11300900C9468060C9474000C9474000C94740012
S11300A00C9474000C9474000C947400580711247C
S11300B01FBECFEFCDBFD7E2DEBF21E2A0E0B0E2AA
S11300C001C01D92A037B207E1F710E0C7E5D0E008
S11300D004C02197FE010E94C107C635D107C9F7A4
S11300E00E9436070C940D080C9400000F931F9384
S11300F0CF93DF93FC01A281B0E0A15FBE4D519686
S11301006C935181DC01139630E020E0351761F1E6
S1130110CD01ED0148811196C42FD0E0CC0FDD1F35
S1130120C25ADE4D08811981EC018B8190E041E0D7
S11301308017910709F440E0242B662329F01896D0
S11301408C911897811104C012961C9212970AC0C0
S1130150689FC001112415968C911597890F1296EA
S11301608C9312973F5FD2CF211118C080910F2139
S1130170838B80911021848B80911121858B8091B8
S11301801221868B80911321878B80911421808F7B
S113019080911521818F80911621828FDF91CF91DB
S11301A01F910F9108952F923F924F925F926F92F9
S11301B07F928F929F92AF92BF92CF92DF92EF92F3
S11301C0FF920F931F93CF93DF93CDB7DEB72E9794
S11301D0CDBFDEBF8C879D8780900F21909010212A
S11301E0A0901121B0901221C0901321D09014211D
S11301F0E0901521F0901621DC0153968D919C918D
S113020054971401281A390A1F962C911F9730E02D
S1130210A1014F5F5F4F429FC001439F900D529FCA
S1130220900D11242C01F5E055944794FA95E1F7CB
S1130230821B930B15E0959587951A95E1F7481A5B
S1130240590A12968C91823019F480E880934506FD
S11302501B86BB854B2F0B2E000C550BEC85FD85A7
S11302602181822F90E0481759070CF0C9C0808182
S1130270882311F08B2F04C08FEF820FFB858F1B17
S11302800C851D85080F111DD8011396BC91BE87DE
S11302906B2E712CB301660F771FCB01825A9E4DD2
S11302A0FC0180819181D80116962C9130E0821B4B
S11302B0930B09F4A1C0EC85FD850088F189E02D3C
S11302C08F01409FF001419FF00D509FF00D1124CC
S11302D0E215F3050CF090C097FD57C0B2018415E8
S11302E095050CF4BC01621B730B9C01261B370B98
S11302F009F068C0AC85BD851F962C91B4E02B9F96
S113030090011124319521953109C301880F991F5A
S1130310880F991F8C0109521F4DAC85BD855B96D2
S11303204D915D916D917C915E97D501C401841BC3
S1130330950BA60BB70B55E0B695A79597958795A2
S11303405A95D1F789839A83AB83BC83D8014D91A5
S11303505D916D917C9189819A81AB81BC81480FBB
S1130360591F6A1F7B1FD8014D935D936D937C9336
S11303701397D301AA0FBB1FA550BF4D8D919C911C
S1130380119701968D939C931DC0AA27BB27A81B88
S1130390B90BA415B5050CF4D2012A0F3B1F280F85
S11303A0391FDB01A25ABE4D8D919C91892B51F4CA
S11303B0EC85FD85838E948EA58EB68EC78ED0A2D5
S11303C0E1A2F2A2D301AA0FBB1FA25ABE4D2D93E4
S11303D03C9320915D2181E090E00E8402C0880F5F
S11303E0991F0A94E2F7822B80935D21AC85BD8529
S11303F052968C9180934506BB85BF5FBB8729CFFE
S11304002E96CDBFDEBFDF91CF911F910F91FF904C
S1130410EF90DF90CF90BF90AF909F908F907F90A0
S11304206F905F904F903F902F9008952091D0004F
S113043020682093D000615031F0FC012191CF015C
S11304402093D300F8CF2091D5008091D40090E080
S1130450922B08959F92AF92BF92CF92DF92EF9228
S1130460FF920F931F93CF93DF934091BC2047FFDC
S113047025C08091B02087FF21C08F7090E0FC01DF
S1130480EE0FFF1FEE0FFF1FE952FF4D40919F201B
S11304905091A0206091A1207091A22040835183AB
S11304A062837383880F991FFC01E550FF4D80918F
S11304B0A7209091A820808391839CC081E2EFE9DA
S11304C0F0E2A7E2B1E201900D928A95E1F7509132
S11304D0372160910F217091102110911121009109
S11304E01221F0901321E0901421D0901521C09096
S11304F01621E3E1F0E2A281B0E0A95DBE4D52967F
S11305009C91529756968C91903208F490E2913ACD
S113051008F090EA9787803418F490E0019602C0BE
S113052080E490E0808B918BB180EF0123969E0153
S1130530A12CBA14F1F0D9018D919D01A82FB0E03E
S1130540A95DBE4D9C9118968C919E3D10F49F5FC1
S113055001C09FEDD90115969C931597981728F41F
S1130560891B803208F480E2D90118968C93A394F5
S1130570E0CF912CA12C9B1499F0A991B0E0AA0F83
S1130580BB1FA25ABE4D2D913C918A8190E0A1E0FF
S11305908217930709F4A0E0AA2A5A839394EBCF15
S11305A0A11008C0638B748B158B068BF78AE08EC1
S11305B0D18EC28EB396B0E2EF39FB0709F09BCF20
S11305C080914121863008F486E08093092090913F
S11305D04221890F80930A2043FF08C041E250E082
S11305E060E070E087E291E20E94CB0780914521B0
S11305F080930604DF91CF911F910F91FF90EF90AC
S1130600DF90CF90BF90AF909F9008951F920F926C
S11306100FB60F9211241F932F933F934F935F9321
S11306206F937F938F939F93AF93BF93CF93DF93F6
S1130630EF93FF9320910F213091102140911121CC
S113064050911221609113217091142180911521F0
S113065090911621A1E00E94A10720930F213093CD
S11306601021409311215093122160931321709310
S11306701421809315219093162183E190E20E9426
S1130680D30086E390E20E94D30089E590E20E94C1
S1130690D3008CE790E20E94D30080910520882348
S11306A0C1F180910F219091102120910B20309164
S11306B00C20821B930B35E0969587953A95E1F7CC
S11306C020910A2030E02817390760F410920520A1
S11306D0109206208091072023E2829FC0011124FA
S11306E060E013C080910620811113C0809109201D
S11306F0882379F081E0809306208091072023E20B
S1130700829FC0011124609143218D5E9F4D0E9400
S11307107600A7E1B1E280E090E0FC01EE0FFF1F5C
S1130720E25AFE4D20813181121613061CF42081F9
S1130730318101C020E02D9301968930910569F73C
S113074080915D2180934A2111E047E050E061E00F
S113075070E0EB01042E02C0CC0FDD1F0A94E2F717
S1130760AFE0B1E2E0E0F0E020E030E080915D2134
S113077090E00E2E02C0959587950A94E2F780FFCB
S11307800BC018968C91189790E08C239D23892B8D
S113079011F0216001C03160220F330F31961196A0
S11307A0E830F10519F7812F880F90E0FC01E75B31
S11307B0FE4D3083FC01E65BFE4D20834150510920
S11307C01F5F193031F610925B2180E090E02FEF2B
S11307D0FC01E65BFE4D2083019681319105C1F752
S11307E010925D218AE491E28093482190934921FB
S11307F080914C09816080934C0983E08093460981
S113080080911F21882321F080E88093050603C08E
S113081080E88093060680910F2190911021A09189
S11308201121B0911221282F237041F428E0209344
S1130830210220910002246020930002880290018A
S113084011242093380830933908A770BB27892BCB
S11308508A2B8B2B41F448E350E061E270E087ED92
S113086090E20E94CB0780915C21833281F48091D5
S11308700420882341F010925C218091C308826097
S11308808093C30806C081E08093042002C01092C4
S11308900420FF91EF91DF91CF91BF91AF919F9190
S11308A08F917F916F915F914F913F912F911F9104
S11308B00F900FBE0F901F9018951F920F920FB6B6
S11308C00F9211240F931F932F933F934F935F9392
S11308D06F937F938F939F93AF93BF93CF93EF9334
S11308E0FF934091100250911102C0910320C43033
S11308F008F077C0809124219A012E5E33412B3673
S1130900374608F062C0EC2FF0E021E030E00C2E16
S113091001C0220F0A94EAF7282B2093242145349E
S11309208BE1580704F500E110E00C2E02C0000F23
S1130930111F0A94E2F7822F90E080239123892BE0
S113094059F023E22E9FC0012F9F900D112460E0E7
S11309508D5E9F4D0E94760000958091242108238E
S113096000932421B3C0CA018059914264E570E028
S11309700E948D07161617063CF46F3F710531F07F
S11309802CF06FEF70E002C061E070E080E190E075
S11309900C2E01C0880F0A94EAF7822B809324213D
S11309A0DF01A15FBE4D51968C9190E068177907E5
S11309B009F48CC023E22E9FC0012F9F900D1124B7
S11309C08D5E9F4D0E94760081C041E150E00C2E67
S11309D001C0440F0A94EAF7409548234093242128
S11309E075C086E0559547958A95E1F74431B8F08E
S11309F090914121992399F090910720A92FB0E07B
S1130A0020912421622F70E020E130E002C0220F07
S1130A10331F9A95E2F726233723232B29F01092CC
S1130A2008201092052052C04A3320F190910820EA
S1130A30943109F04BC04093082093E29A9FF0014F
S1130A409B9FF00D1124ED5EFF4D91E0473408F4B7
S1130A5090E0908323E22A9FC0012B9F900D1124E4
S1130A606FEF8D5E9F4D0E947600109205201092CC
S1130A7006202CC0493351F190910820491730F5D4
S1130A8084E18093082080910F2180930B20809132
S1130A90102180930C208091112180930D2080914E
S1130AA0122180930E208091132180930F20809136
S1130AB0142180931020809115218093112080911E
S1130AC016218093122081E08093052081E08C0F11
S1130AD080930320CE5FCC0FCC0FCC0FC0932102A8
S1130AE0853030F48091000284608093000202C05B
S1130AF010920320FF91EF91CF91BF91AF919F91FD
S1130B008F917F916F915F914F913F912F911F91A1
S1130B100F910F900FBE0F901F9018951F920F9278
S1130B200FB60F9211242F933F934F935F936F93BC
S1130B307F938F939F93AF93BF93EF93FF93809192
S1130B40C0089091C30891FF6CC09FED980F94303A
S1130B5008F064C09091C3089D7F9093C30880936C
S1130B605C21833251F481E2809302208FE990E288
S1130B70809300209093012080C082E080934506FA
S1130B8085E18A95F1F7000080915C21823249F475
S1130B9081E290E0809326019093270187E291E21D
S1130BA033C080915C218132A9F488E1EFE0F1E265
S1130BB0AFE9B0E201900D928A95E1F766E18FE921
S1130BC090E20E9416028093B5209093B62088E1AB
S1130BD090E014C088E3E7EDF0E2AFE9B0E2019001
S1130BE00D928A95E1F766E38FE990E20E9416027E
S1130BF08093D5209093D62088E390E080932601BB
S1130C00909327018FE990E2809328019093290122
S1130C10809120018068809320012FC010925C2174
S1130C202CC090915C21933241F5E0910020F09129
S1130C3001209F012F5F3F4F20930020309301201C
S1130C40808380910220815080930220811115C0FD
S1130C5010925C218091C30882608093C3086FE185
S1130C608FE990E20E9416022091BE203091BF20AD
S1130C708217930711F40E942A02FF91EF91BF910A
S1130C80AF919F918F917F916F915F914F913F9120
S1130C902F910F900FBE0F901F9018951F920F92D7
S1130CA00FB60F9211248F93EF93FF9384E08093F8
S1130CB0460610925C21E0E0F1E081A1806181A30D
S1130CC0FF91EF918F910F900FBE0F901F90189589
S1130CD01F920F920FB60F9211242F938F939F930D
S1130CE0EF93FF93E0914821F0914921CF010196C0
S1130CF080934821909349212081209364068B5549
S1130D00914231F028F080EF8093460610924C090E
S1130D10FF91EF919F918F912F910F900FBE0F90A4
S1130D201F90189580E8809301068FE38093B000AC
S1130D3087E08093100680E4809317069BEF9093DE
S1130D4041069FEF909361069093B00080937006E4
S1130D5082E080935200809150008A60809350001A
S1130D608091510083FFFCCF8091510081FFFCCF23
S1130D7082E08093560081E08093600098ED94BFF8
S1130D80809340008AE08093500083E08093430086
S1130D908091010480FDFCCF88ED84BF81E08093C5
S1130DA0420057E05093A20020E130E020930A046F
S1130DB030930B0492E090930204909300041092F9
S1130DC00804109209042AE12093C3082FE0209319
S1130DD0C4082CE02093C60840E14093C70820E7EC
S1130DE02093C2088093000222E12093010220E2B2
S1130DF02093020233E0309304025093080280935C
S1130E0020028093220254E050932C023093000875
S1130E1035E030930108409302088093040840E0D1
S1130E2050E44093360850933708109238081092D3
S1130E30390820930808309340091092410941EA87
S1130E4051E0409376095093770920934809909391
S1130E50210191E1909322019DE49093240190EA71
S1130E60909300018093D000789408950E94920694
S1130E7048E350E061E270E087ED90E20E94C7072A
S1130E804FE150E060E070E08FE990E20E94C70714
S1130E901092BC201092B0206FE18FE990E20E9482
S1130EA016028093BE209093BF200E942A02FFCF97
S1130EB0E3E1F0E293E0918387E0838386E0848337
S1130EC085E08583128280E1828B94A384E086A3EB
S1130ED097A382E080A721E025A330E235AB80937D
S1130EE05A2020935C2010925D2010925E20809303
S1130EF05B2030E430936B2020937D2028E0209306
S1130F007F20109280201092812090937E2090E880
S1130F1090938E2080930720089597FB072E16F454
S1130F20009407D077FD09D00E94AD0707FC05D0D7
S1130F303EF4909581959F4F0895709561957F4FEC
S1130F4008950024A7FD00942A0F301D401D501D54
S1130F50601D701D801D901D0895AA1BBB1B51E1CF
S1130F6007C0AA1FBB1FA617B70710F0A61BB70B15
S1130F70881F991F5A95A9F780959095BC01CD01BA
S1130F800895EE0FFF1F0590F491E02D0994605031
S1130F90704F0C940408DC01A40FB51F415050405D
S1130FA048F0CB01840F951F2E910E94DC0741501D
S1130FB05040D0F70895262F0E94000800800216A2
S1130FC019F00E94E707019701970895262FAF9320
S1130FD0BF93E0ECF1E0378537FDFDCFDC01A05095
S1130FE0B04F2C9325E3228728ED31E024BF3387CB
S1130FF00196BF91AF91089503D0808199270895F8
S1131000FC01E050F04F0895FB01DC0102C00190A7
S11110100D9241505040D8F70895F894FFCF48
S9030000FC
