:100000000C9457000C9474000C9474000C947400BD
:100010000C944F060C9474000C9474000C94190307
:100020000C9474000C9474000C9474000C94740080
:100030000C9474000C9474000C9474000C94740070
:100040000C9474000C9474000C9474000C94740060
:100050000C9474000C9474000C9474000C948F0530
:100060000C9474000C9474000C9474000C94740040
:100070000C9474000C9474000C9474000C94740030
:100080000C9474000C9474000C945E040C94740032
:100090000C9474000C9474000C9474000C94740010
:1000A0000C9474000C9474000C9474005307112485
:1000B0001FBECFEFCDBFD7E2DEBF21E2A0E0B0E2AE
:1000C00001C01D92AA36B207E1F710E0C7E5D0E003
:1000D00004C02197FE010E94BC07C635D107C9F7AD
:1000E0000E9431070C9408080C9400000F931F9392
:1000F000CF93DF93FC01A281B0E0A55FBE4D519686
:100100006C935181DC01139630E020E0351761F1EA
:10011000CD01ED0148811196C42FD0E0CC0FDD1F39
:10012000C85ADE4D08811981EC018B8190E041E0D5
:100130008017910709F440E0242B662329F01896D4
:100140008C911897811104C012961C9212970AC0C4
:10015000689FC001112415968C911597890F1296EE
:100160008C9312973F5FD2CF211118C080910B2141
:10017000828B80910C21838B80910D21848B8091C7
:100180000E21858B80910F21868B80911021878B8A
:1001900080911121808F80911221818FDF91CF91E9
:1001A0001F910F9108952F923F924F925F926F92FD
:1001B0007F928F929F92AF92BF92CF92DF92EF92F7
:1001C000FF920F931F93CF93DF93FC0100910B21BC
:1001D00010910C2120910D2130910E2140910F2181
:1001E000509110216091112170911221828993897F
:1001F0001801281A390AA785B0E0E1012196CA9FA3
:10020000C001CB9F900DDA9F900D11244C01C5E0E9
:1002100095948794CA95E1F78A1B9B0BD5E0959539
:100220008795DA95E1F7881A990A818980934606BD
:10023000D12C8181D81608F0A3C09081911103C000
:1002400081508D1901C08D2D7F01E80EF11CD70161
:100250001396CC90AC2CB12CE501CC0FDD1FCE0158
:10026000885A9E4DDC018D919C91D7011696FC9089
:10027000AF2DB0E08A1B9B0B09F480C0E088DE9CA8
:1002800070011124E214F3040CF078C097FD46C00D
:10029000E401881599050CF4EC01CA1BDB0B7C0109
:1002A000EC1AFD0A09F055C0A78584E0A89FD0018B
:1002B0001124EE24FF24EA1AFB0AC501880F991FB6
:1002C000880F991FEC01CD52DF4D828D938DA48D47
:1002D000B58D28013901481A590A6A0A7B0AB5E026
:1002E0007694679457944794BA95D1F78881998109
:1002F000AA81BB81840D951DA61DB71D8883998396
:10030000AA83BB83D501AA0FBB1FA950BF4D8D91F6
:100310009C91119701968D939C931BC0EE24FF2412
:10032000E81AF90AE814F9040CF47401AE0DBF1DC3
:100330007C01EA0EFB1EC85ADE4D88819981892B0B
:1003400041F4028F138F248F358F468F578F60A310
:1003500071A3D501AA0FBB1FA85ABE4DED92FC9206
:10036000A091572181E090E001C0880FCA94EAF77C
:100370008A2B80935721818980934506D39459CF46
:10038000DF91CF911F910F91FF90EF90DF90CF9071
:10039000BF90AF909F908F907F906F905F904F90A5
:1003A0003F902F9008952091D00020682093D00096
:1003B000615031F0FC012191CF012093D300F8CF9F
:1003C0002091D5008091D40090E0922B08952F9237
:1003D0003F924F925F926F927F928F929F92AF92D5
:1003E000BF92CF92DF92EF92FF920F931F93CF9322
:1003F000DF93CDB7DEB72597CDBFDEBF6091B820C4
:1004000067FF25C08091AC2087FF21C08F7090E0EE
:10041000FC01EE0FFF1FEE0FFF1FED52FF4D40914D
:100420009B2050919C2060919D2070919E20408344
:10043000518362837383880F991FFC01E950FF4D3C
:100440008091A3209091A42080839183DCC081E2DD
:10045000EBE9F0E2A3E2B1E201900D928A95E1F7B7
:1004600080913421482F4F72742E20913321222EF7
:10047000312C8F71A82E50910B21598310910C2192
:1004800000910D21F0900E21E0900F21D0901021CD
:10049000C0901121B0901221E3E1F0E24424439492
:1004A000512CA281B0E0AD5DBE4D52968C91529719
:1004B00056969C91803208F480E2813A08F080EAF6
:1004C0008787903418F481E0890F01C080E4808B25
:1004D0003181CF0103968C839D8350E0351711F154
:1004E000DC017D91CD01872E912CD401AD5DBE4DF7
:1004F0007C9118964C917E3D20F499249394970E0C
:1005000002C07FED972EDC0115969C9215979416EC
:1005100028F44919403208F440E2DC0118964C9363
:100520005F5FDCCF912C812C931609F441C0AC8124
:10053000BD816D90AC83BD83862D90E0880F991F9F
:10054000AC01485A5E4DDA010D90BC91A02DAA83F2
:10055000BB83AC81BD8112964C9150E071E0AA81C1
:10056000BB814A175B0709F470E0872A492D406276
:10057000741214C0AC81BD8112962C93885A9E4D82
:10058000DC012D923C9240915721C20101C0880F9D
:100590006A94EAF7842B8093572108C0892D8061E3
:1005A000A81204C0AC81BD8112962C939394BCCF49
:1005B000811009C0B981B28B138B048BF58AE68A4E
:1005C000D78AC08EB18EB29640E2EB39F40709F0BB
:1005D00068CF80913D21863008F486E08093092021
:1005E00090913E21890F80930A2063FF08C041E269
:1005F00050E060E070E083E291E20E94C6078091E3
:100600004121809306042596CDBFDEBFDF91CF91B7
:100610001F910F91FF90EF90DF90CF90BF90AF9020
:100620009F908F907F906F905F904F903F902F9012
:1006300008951F920F920FB60F9211241F932F93BC
:100640003F934F935F936F937F938F939F93AF935A
:10065000BF93CF93DF93EF93FF9320910B213091C2
:100660000C2140910D2150910E2160910F2170912C
:1006700010218091112190911221A1E00E949C07EC
:1006800020930B2130930C2140930D2150930E2188
:1006900060930F2170931021809311219093122168
:1006A0008091402182FD4CC083E190E20E94D30002
:1006B00085E390E20E94D30087E590E20E94D30098
:1006C00089E790E20E94D300809105208823C1F140
:1006D00080910B2190910C2120910B2030910C20C6
:1006E000821B930B35E0969587953A95E1F720911B
:1006F0000A2030E02817390760F410920520109284
:1007000006208091072022E2829FC001112460E030
:1007100013C080910620811113C080910920882385
:1007200079F081E0809306208091072022E2829F69
:10073000C001112460913F218D5E9F4D0E94760083
:10074000A3E1B1E280E090E0FC01EE0FFF1FE85A68
:10075000FE4D20813181121613061CF42081318157
:1007600001C020E02D9301968930910569F78091B1
:1007700057218093442111E047E050E061E070E0B0
:10078000EB01042E02C0CC0FDD1F0A94E2F7ABE0B0
:10079000B1E2E0E0F0E080E090E02091572130E02D
:1007A0000E2E02C0359527950A94E2F720FF0BC064
:1007B00018962C91189730E02C233D23232B11F011
:1007C000816001C09160880F990F31961196E830D1
:1007D000F10519F7E12FEE0FF0E0EC5BFE4DDF01C4
:1007E00011979C938083415051091F5F193041F646
:1007F000109255211092572180913001806880938A
:10080000300180911B21882321F080E88093050628
:1008100003C080E88093060680910B2190910C2103
:10082000A0910D21B0910E21282F237041F428E0D2
:10083000209321022091000224602093000288026C
:10084000900111242093780830937908A770BB2772
:10085000892B8A2B8B2B41F448E350E061E270E056
:1008600083ED90E20E94C60780915621833281F485
:1008700080910420882341F0109256218091C30872
:1008800082608093C30806C081E08093042002C088
:1008900010920420FF91EF91DF91CF91BF91AF9122
:1008A0009F918F917F916F915F914F913F912F9188
:1008B0001F910F900FBE0F901F9018951F920F92CF
:1008C0000FB60F9211240F931F932F933F934F93C3
:1008D0005F936F937F938F939F93AF93BF93CF93C8
:1008E000EF93FF934091100250911102C0910320A9
:1008F000C43008F077C0809120219A012E5E3341E8
:100900002B36374608F062C0EC2FF0E021E030E0F3
:100910000C2E01C0220F0A94EAF7282B20932021E5
:1009200045348BE1580704F500E110E00C2E02C0BD
:10093000000F111F0A94E2F7822F90E08023912389
:10094000892B59F022E22E9FC0012F9F900D112478
:1009500060E08D5E9F4D0E94760000958091202181
:10096000082300932021B3C0CA018059914264E555
:1009700070E00E948807161617063CF46F3F710559
:1009800031F02CF06FEF70E002C061E070E080E1C8
:1009900090E00C2E01C0880F0A94EAF7822B809316
:1009A0002021DF01A55FBE4D51968C9190E0681724
:1009B000790709F48CC022E22E9FC0012F9F900D71
:1009C00011248D5E9F4D0E94760081C041E150E070
:1009D0000C2E01C0440F0A94EAF740954823409337
:1009E000202175C086E0559547958A95E1F74431F9
:1009F000B8F090913D21992399F090910720A92F6B
:100A0000B0E020912021622F70E020E130E002C0B0
:100A1000220F331F9A95E2F726233723232B29F041
:100A2000109208201092052052C04A3320F1909174
:100A30000820943109F04BC04093082092E29A9F1D
:100A4000F0019B9FF00D1124ED5EFF4D91E04734C6
:100A500008F490E0908322E22A9FC0012B9F900D22
:100A600011246FEF8D5E9F4D0E947600109205203D
:100A7000109206202CC0493351F19091082049175B
:100A800030F584E18093082080910B2180930B2026
:100A900080910C2180930C2080910D2180930D205A
:100AA00080910E2180930E2080910F2180930F2042
:100AB000809110218093102080911121809311202A
:100AC000809112218093122081E08093052081E0A3
:100AD0008C0F80930320CE5FCC0FCC0FCC0FC09334
:100AE0002102853030F480910002846080930002FE
:100AF00002C010920320FF91EF91CF91BF91AF916F
:100B00009F918F917F916F915F914F913F912F9125
:100B10001F910F910F900FBE0F901F9018951F926D
:100B20000F920FB60F9211242F933F934F935F9321
:100B30006F937F938F939F93AF93BF93EF93FF93A5
:100B40008091C0089091C30891FF6CC09FED980FF1
:100B5000943008F064C09091C3089D7F9093C308BF
:100B600080935621833251F481E2809302208BE9F5
:100B700090E2809300209093012080C084E08093D5
:100B8000450685E18A95F1F7000080915621823271
:100B900049F481E290E0809326019093270183E25B
:100BA00091E233C0809156218132A9F488E1EBE0D3
:100BB000F1E2ABE9B0E201900D928A95E1F766E1CE
:100BC0008BE990E20E94D3018093B1209093B220F0
:100BD00088E190E014C088E3E3EDF0E2ABE9B0E235
:100BE00001900D928A95E1F766E38BE990E20E940D
:100BF000D3018093D1209093D22088E390E080931A
:100C00002601909327018BE990E28093280190932D
:100C10002901809120018068809320012FC01092CB
:100C200056212CC090915621933241F5E09100203D
:100C3000F09101209F012F5F3F4F209300203093C0
:100C400001208083809102208150809302208111B5
:100C500015C0109256218091C30882608093C3080A
:100C60006FE18BE990E20E94D3012091BA2030918C
:100C7000BB208217930711F40E94E701FF91EF91C7
:100C8000BF91AF919F918F917F916F915F914F91A4
:100C90003F912F910F900FBE0F901F9018951F92AC
:100CA0000F920FB60F9211248F9384E08093460623
:100CB000109256218F910F900FBE0F901F90189594
:100CC000F89490E8909301068FE38093B00087E05A
:100CD0008093100680E4809317062BEF2093410643
:100CE000109254062FEF209361062093B00080935A
:100CF000700682E080935200809150008A60809359
:100D00005000909345068091510083FFFCCF80E412
:100D1000809345068091510081FFFCCF80E2809353
:100D2000450682E08093560081E08093600098ED54
:100D300094BF809340008AE08093500083E08093CA
:100D400043008091010480FDFCCF90E19093450623
:100D500088ED84BF81E0809342008093000420E20C
:100D600030E020930A0430930B0442E040930204E5
:100D70002AE12093C3082FE02093C4082CE020939D
:100D8000C6089093C70890E79093C208809300022A
:100D900092E19093010290E29093020253E050930B
:100DA000040227E02093080280932002809322020D
:100DB00034E030932C025093400855E050934108A2
:100DC0008093440860E070E460937608709377083D
:100DD00010927808109279089093480856E0509342
:100DE000400968E670E06093760970937709909304
:100DF000480990EA909300014093210191E3909378
:100E000022014DE44093240130933001909332014C
:100E10001092330196E69093340142E150E0409302
:100E200036015093370144E451E240933801509326
:100E3000390144E656E040933C0150933D018093D4
:100E4000D0002093A2002FEF8EE891E62150804041
:100E50009040E1F700C0000080EF80934606789450
:100E600008950E94600648E350E061E270E083ED7F
:100E700090E20E94C2074FE150E060E070E08BE931
:100E800090E20E94C2071092B8201092AC206FE14D
:100E90008BE990E20E94D3018093BA209093BB200B
:100EA0000E94E701FFCFE3E1F0E283E0818397E076
:100EB000938396E0948395E09583128290E1918BE1
:100EC00083A394E095A386A322E027A391E094A3B3
:100ED00030E233AB9093582090935A2010925B20CD
:100EE00010925C202093592030E430936820909336
:100EF0007A2098E090937C2010927D2010927E20A2
:100F000080937B2080E880938A2020930720089597
:100F100097FB072E16F4009407D077FD09D00E94A6
:100F2000A80707FC05D03EF4909581959F4F089542
:100F3000709561957F4F08950024A7FD00942A0FB6
:100F4000301D401D501D601D701D801D901D089599
:100F5000AA1BBB1B51E107C0AA1FBB1FA617B707DF
:100F600010F0A61BB70B881F991F5A95A9F78095FB
:100F70009095BC01CD010895EE0FFF1F0590F491EF
:100F8000E02D09946050704F0C94FF07DC01A40F12
:100F9000B51F4150504048F0CB01840F951F2E9152
:100FA0000E94D70741505040D0F70895262F0E9445
:100FB000FB070080021619F00E94E20701970197D3
:100FC0000895262FAF93BF93E0ECF1E0378537FD0E
:100FD000FDCFDC01A050B04F2C9325E3228728EDF4
:100FE00031E024BF33870196BF91AF91089503D0BC
:100FF000808199270895FC01E050F04F0895FB018E
:10100000DC0102C001900D9241505040D8F7089584
:04101000F894FFCF82
:00000001FF
